:0400000026EF00F0F7
:100008005B82FACF03F0FBCF04F0F2AC0EEF00F006
:1000180010EF00F020EF00F09DA015EF00F017EFB3
:1000280000F020EF00F09EA01CEF00F01EEF00F0A3
:1000380020EF00F0DEEC1EF004C0FBFF03C0FAFF67
:100048005B921100E3EF1DF00B0E0001F06F620EE2
:10005800E82EFED7F02FFCD700F059EC1FF08B925A
:10006800000E0001C46F8B94000EC36F050E0001D3
:10007800F16F0F0EF06FF10EE82EFED7F02FFCD7C0
:10008800F12FFAD7050E0001F16F0F0EF06FF10E88
:10009800E82EFED7F02FFCD7F12FFAD7000E066E08
:1000A800000E056E86EC1FF00001F06F000E066E64
:1000B800010E056E86EC1FF00001F16FF151640D21
:1000C800F3CFF2F0F4CFF3F0F051F225AC6F000E5D
:1000D800F321AD6FE80EAC5D030EAD59D8A077EFF4
:1000E80000F079EF00F07DEF00F0000EAD6FFA0E32
:1000F800AC6F000E066E020E056E86EC1FF0000156
:10010800F06F000E066E030E056E86EC1FF0000100
:10011800F16FF151640DF3CFF2F0F4CFF3F0F05139
:10012800F225AA6F000EF321AB6FE80EAA5D030E4D
:10013800AB59D8A0A2EF00F0A4EF00F0A8EF00F0B0
:10014800000EAB6F140EAA6F000E066E040E056E3D
:1001580086EC1FF00001F06F000E066E050E056EAE
:1001680086EC1FF00001F16FF151640DF3CFF2F04E
:10017800F4CFF3F0F051F225A66F000EF321A76F2C
:10018800E80EA65D030EA759D8A0CDEF00F0CFEF7B
:1001980000F0D3EF00F0000EA76F000EA66F000E60
:1001A800066E060E056E86EC1FF00001F06F000E5D
:1001B800066E070E056E86EC1FF00001F16FF15117
:1001C800640DF3CFF2F0F4CFF3F0F051F225A46F01
:1001D800000EF321A56FE80EA45D030EA559D8A063
:1001E800F8EF00F0FAEF00F0FEEF00F0000EA56F58
:1001F8000F0EA46F000E066E080E056E86EC1FF03B
:100208000001F06F000E066E090E056E86EC1FF0F9
:100218000001F16FF151640DF3CFF2F0F4CFF3F078
:10022800F051F225A26F000EF321A36FE80EA25D34
:10023800030EA359D8A023EF01F025EF01F029EF11
:1002480001F0000EA36F3C0EA26F000E066E0A0EA0
:10025800056E86EC1FF00001F06F000E066E0B0EA7
:10026800056E86EC1FF00001F16FF151640DF3CFBC
:10027800F2F0F4CFF3F0F051F225D26F000EF32133
:10028800D36FE80ED25D030ED359D8A04EEF01F01C
:1002980050EF01F054EF01F0000ED36F320ED26F21
:1002A800000E066E0C0E056E86EC1FF00001F06F56
:1002B800000E066E0D0E056E86EC1FF00001F16F44
:1002C800F151640DF3CFF2F0F4CFF3F0F051F225D1
:1002D800A06F000EF321A16FE80EA05D030EA159D7
:1002E800D8A079EF01F07BEF01F07FEF01F0000E6D
:1002F800A16F0A0EA06F000E066E0E0E056E86EC3C
:100308001FF00001F06F000E066E0F0E056E86ECF2
:100318001FF00001F16FF151640DF3CFF2F0F4CF4B
:10032800F3F0F051F2259E6F000EF3219F6FE80E57
:100338009E5D030E9F59D8A0A4EF01F0A6EF01F02F
:10034800AAEF01F0000E9F6F030E9E6F000E066E5F
:10035800100E056E86EC1FF00001F06F000E066EA1
:10036800110E056E86EC1FF00001F16FF151640D5E
:10037800F3CFF2F0F4CFF3F0F051F2259C6F000EBA
:10038800F3219D6FE80E9C5D030E9D59D8A0CFEF19
:1003980001F0D1EF01F0D5EF01F0020E9D6F990E3B
:1003A8009C6F000E066E120E056E86EC1FF00001A3
:1003B800F06F000E066E130E056E86EC1FF000013E
:1003C800F16FF151640DF3CFF2F0F4CFF3F0F05187
:1003D800F2259A6F000EF3219B6FE80E9A5D030ECB
:1003E8009B59D8A0FAEF01F0FCEF01F000EF02F002
:1003F800000E9B6F860E9A6F000E066E140E056E29
:1004080086EC1FF00001F06F000E066E150E056EEB
:1004180086EC1FF00001F16FF151640DF3CFF2F09B
:10042800F4CFF3F0F051F225986F000EF321996F95
:10043800E80E985D030E9959D8A025EF02F027EF32
:1004480002F02BEF02F0000E996F000E986F220E4B
:10045800056E3A0E066ECAEC1FF0F28EF28C000E94
:100468001C6E000E1D6E800E1E6E3F0E1F6ED2C0DB
:100478000AF0D3C00BF00C6A0D6A000E46EC17F0B8
:100488000AC018F00BC019F00CC01AF00DC01BF010
:100498001FEC12F018C031F019C032F01AC033F056
:1004A8001BC034F0A4C00AF0A5C00BF00C6A0D6A9A
:1004B800000E46EC17F00AC035F00BC036F00CC041
:1004C80037F00DC038F034EC14F031C054F132C0BC
:1004D80055F133C056F134C057F1A2C00AF0A3C099
:1004E8000BF00C6A0D6A000E46EC17F00AC0F4F027
:1004F8000BC0F5F00CC0F6F00DC0F7F0000E316E31
:10050800000E326E800E336E3F0E346E000E1C6E7F
:10051800000E1D6E200E1E6E410E1F6EF4C018F0E8
:10052800F5C019F0F6C01AF0F7C01BF01FEC12F076
:1005380018C035F019C036F01AC037F01BC038F0B3
:1005480034EC14F031C0F4F032C0F5F033C0F6F0FA
:1005580034C0F7F0000E1C6E000E1D6EC80E1E6E25
:10056800420E1F6E9EC00AF09FC00BF00C6A0D6A07
:10057800000E46EC17F00AC018F00BC019F00CC0BA
:100588001AF00DC01BF01FEC12F018C031F019C0A2
:1005980032F01AC033F01BC034F0CD0E1C6ECC0EF6
:1005A8001D6ECC0E1E6E3D0E1F6E9CC00AF09DC0C7
:1005B8000BF00C6A0D6A000E46EC17F00AC018F032
:1005C8000BC019F00CC01AF00DC01BF01FEC12F094
:1005D80018C035F019C036F01AC037F01BC038F013
:1005E800BFEC0FF031C07CF032C07DF033C07EF03C
:1005F80034C07FF07CC018F07DC019F07EC01AF0BE
:100608007FC01BF06F0E1C6E120E1D6E830E1E6EC9
:100618003A0E1F6E1FEC12F018C07CF019C07DF066
:100628001AC07EF01BC07FF09AC00AF09BC00BF086
:100638000C6A0D6A000E46EC17F00AC02CF10BC0CC
:100648002DF10CC02EF10DC02FF1B2EC1FF0E80611
:10065800D8A431EF03F033EF03F016EF06F0F2946D
:10066800D3EC1FF00001BC51D8A43DEF03F03FEFDD
:1006780003F061EF03F080B844EF03F046EF03F0B6
:100688005DEF03F0944B952B955109E1C90E945DEC
:10069800D8A051EF03F053EF03F061EF03F0000E21
:1006A800956F000E946F010EBC6F010EBD6F61EF68
:1006B80003F0000E956F000E946F81B066EF03F0A3
:1006C80068EF03F07FEF03F0924B932B935109E10E
:1006D800330E925DD8A073EF03F075EF03F087EF48
:1006E80003F0000E936F000E926F000E916F010ED3
:1006F800906F87EF03F0000E936F000E926F000E5D
:10070800916F000E906F64EC1DF00001CE51D8B4CB
:1007180090EF03F092EF03F016EF06F0CE07CE51FC
:10072800D8A499EF03F09BEF03F016EF06F0D0057D
:10073800D8A4A1EF03F0A3EF03F0DFEF03F0BC515F
:10074800D8A4A9EF03F0ABEF03F0C8EF03F0BD5155
:10075800D8A4B1EF03F0B3EF03F0B7EF03F00A0E3C
:10076800BD6FD5EF03F00A0EBD19D8A4BEEF03F094
:10077800C0EF03F0C4EF03F00B0EBD6FD5EF03F02D
:10078800000EBD6FD5EF03F0BD2B0B0EBD65CFEF8F
:1007980003F0D1EF03F0D5EF03F0000EBD6F000EAC
:1007A800BC6F050EAF6FDC0EAE6F000E5A6E000EFA
:1007B800596E16EF06F0030ED019D8A4E6EF03F031
:1007C800E8EF03F000EF05F0100ECF6F010ECA6FCF
:1007D800130EAF6F880EAE6FC3EF04F0A64BA72BB6
:1007E800A75109E1650EA65DD8A0FDEF03F0FFEF64
:1007F80003F016EF06F0000EA76F640EA66F16EF53
:1008080006F0A44BA52BA55109E1650EA45DD8A05F
:1008180010EF04F012EF04F016EF06F0000EA56FCB
:10082800640EA46F16EF06F0A24BA32BE80EA25D90
:10083800030EA359D8A023EF04F025EF04F016EF18
:1008480006F0030EA36FE70EA26F16EF06F0D24B69
:10085800D32BD35109E1650ED25DD8A036EF04F051
:1008680038EF04F016EF06F0000ED36F640ED26F67
:1008780016EF06F0A04BA12BE80EA05D030EA159C0
:10088800D8A049EF04F04BEF04F016EF06F0030E82
:10089800A16FE70EA06F16EF06F09E4B9F2B9F519E
:1008A80009E10B0E9E5DD8A05CEF04F05EEF04F04A
:1008B80016EF06F0000E9F6F0A0E9E6F16EF06F0F9
:1008C8009C4B9D2BE80E9C5D030E9D59D8A06FEFA5
:1008D80004F071EF04F016EF06F0030E9D6FE70EBB
:1008E8009C6F16EF06F09A4B9B2BE80E9A5D030E51
:1008F8009B59D8A082EF04F084EF04F016EF06F0BD
:10090800030E9B6FE70E9A6F16EF06F0984B992B24
:10091800995109E1020E985DD8A095EF04F097EF80
:1009280004F016EF06F0000E996F000E986F16EFA0
:1009380006F0AC4BAD2BE80EAC5D030EAD59D8A05C
:10094800A8EF04F0AAEF04F016EF06F0030EAD6F5F
:10095800E70EAC6F16EF06F0AA4BAB2BE80EAA5DBC
:10096800030EAB59D8A0BBEF04F0BDEF04F016EFAF
:1009780006F0030EAB6FE70EAA6F16EF06F0BD5137
:10098800F06FF16BF151000AD8B4CDEF04F016EF17
:1009980006F0F051000AD8B416EF06F0010AD8B4F0
:1009A800F2EF03F0030AD8B405EF04F0010AD8B453
:1009B80018EF04F0070AD8B42BEF04F0010AD8B4F2
:1009C8003EEF04F0030AD8B451EF04F0010AD8B49A
:1009D80064EF04F00F0AD8B477EF04F0010AD8B432
:1009E8008AEF04F0030AD8B49DEF04F0010AD8B4E2
:1009F800B0EF04F016EF06F0050ED019D8A407EFF3
:100A080005F009EF05F016EF06F0100ECF6F010E96
:100A1800CA6F130EAF6F880EAE6FD9EF05F0A651EF
:100A2800A711D8A41AEF05F01CEF05F020EF05F088
:100A3800000EA76F010EA66FA607D8A0A70716EF8E
:100A480006F0A451A511D8A42CEF05F02EEF05F05F
:100A580032EF05F0000EA56F010EA46FA407D8A011
:100A6800A50716EF06F0A251A311D8A43EEF05F092
:100A780040EF05F044EF05F0000EA36F010EA26FE2
:100A8800A207D8A0A30716EF06F0D251D311D8A415
:100A980050EF05F052EF05F056EF05F0000ED36F5A
:100AA800010ED26FD207D8A0D30716EF06F0A051D7
:100AB800A111D8A462EF05F064EF05F068EF05F026
:100AC800000EA16F010EA06FA007D8A0A10716EF16
:100AD80006F09E519F11D8A474EF05F076EF05F04B
:100AE8007AEF05F0000E9F6F010E9E6F9E07D8A04B
:100AF8009F0716EF06F09C519D11D8A486EF05F0CC
:100B080088EF05F08CEF05F0000E9D6F010E9C6FCD
:100B18009C07D8A09D0716EF06F09A519B11D8A400
:100B280098EF05F09AEF05F09EEF05F0000E9B6F29
:100B3800010E9A6F9A07D8A09B0716EF06F09851F6
:100B48009911D8A4AAEF05F0ACEF05F0B0EF05F0C5
:100B5800000E996F010E986F9807D8A0990716EFA5
:100B680006F0AC51AD11D8A4BCEF05F0BEEF05F00E
:100B7800C2EF05F0000EAD6F010EAC6FAC07D8A048
:100B8800AD0716EF06F0AA51AB11D8A4CEEF05F0C9
:100B9800D0EF05F0D4EF05F0000EAB6F010EAA6F91
:100BA800AA07D8A0AB0716EF06F0BD51F06FF16B9E
:100BB800F151000AD8B4E3EF05F016EF06F0F05152
:100BC800000AD8B416EF06F0010AD8B413EF05F0FE
:100BD800030AD8B425EF05F0010AD8B437EF05F0B9
:100BE800070AD8B449EF05F0010AD8B45BEF05F05D
:100BF800030AD8B46DEF05F0010AD8B47FEF05F009
:100C08000F0AD8B491EF05F0010AD8B4A3EF05F0A4
:100C1800030AD8B4B5EF05F0010AD8B4C7EF05F058
:100C280016EF06F0A8EC1FF0E806D8A41EEF06F0B1
:100C380020EF06F0CAEF09F0A192C4EC1FF0000102
:100C48008E4B8F2B020EFDEC1EF005C00AF006C07D
:100C58000BF00C6A0D6A000E46EC17F00AC031F072
:100C68000BC032F00CC033F00DC034F06CC035F05E
:100C78006DC036F06EC037F06FC038F0BFEC0FF0C3
:100C880031C06CF032C06DF033C06EF034C06FF01C
:100C9800010EFDEC1EF005C00AF006C00BF00C6A50
:100CA8000D6A000E46EC17F00AC031F00BC032F0A6
:100CB8000CC033F00DC034F068C035F069C036F0B0
:100CC8006AC037F06BC038F0BFEC0FF031C068F085
:100CD80032C069F033C06AF034C06BF000018F5144
:100CE80009E10A0E8E5DD8A07CEF06F07EEF06F0D3
:100CF800ABEF07F06CC031F06DC032F06EC033F06E
:100D08006FC034F08EC00AF08FC00BF00C6A0D6A09
:100D1800000E46EC17F00AC035F00BC036F00CC0D8
:100D280037F00DC038F034EC14F031C064F032C044
:100D380065F033C066F034C067F0000E1C6E000E1C
:100D48001D6E800E1E6E3F0E1F6E64C018F065C0CB
:100D580019F066C01AF067C01BF01FEC12F018C03B
:100D680031F019C032F01AC033F01BC034F0000E55
:100D7800356E000E366E800E376E440E386E34ECCB
:100D880014F031C064F032C065F033C066F034C08E
:100D980067F064C018F065C019F066C01AF067C043
:100DA8001BF0000E1C6E000E1D6E7A0E1E6E440E99
:100DB8001F6E1FEC12F018C064F019C065F01AC05D
:100DC80066F01BC067F02CC145F02DC146F02EC15E
:100DD80047F02FC148F064C041F065C042F066C0DA
:100DE80043F067C044F079EC1EF041C018F042C0EF
:100DF80019F043C01AF044C01BF07CC01CF07DC041
:100E08001DF07EC01EF07FC01FF01FEC12F018C04E
:100E180030F119C031F11AC032F11BC033F168C08A
:100E280031F069C032F06AC033F06BC034F08EC064
:100E38000AF08FC00BF00C6A0D6A000E46EC17F032
:100E48000AC035F00BC036F00CC037F00DC038F0D2
:100E580034EC14F031C00CF132C00DF133C00EF196
:100E680034C00FF1000E1C6E000E1D6E800E1E6E3B
:100E78003F0E1F6E0CC118F00DC119F00EC11AF00B
:100E88000FC11BF01FEC12F018C031F019C032F07E
:100E98001AC033F01BC034F0000E356E000E366EEB
:100EA800800E376E440E386E34EC14F031C00CF1FD
:100EB80032C00DF133C00EF134C00FF10CC118F07F
:100EC8000DC119F00EC11AF00FC11BF0000E1C6EF7
:100ED800000E1D6EC80E1E6E420E1F6E1FEC12F025
:100EE80018C080F019C081F01AC082F01BC083F0CE
:100EF80080C018F081C019F082C01AF083C01BF0BE
:100F0800870E1C6E160E1D6E590E1E6E3F0E1F6E3E
:100F18001FEC12F018C080F019C081F01AC082F0DE
:100F28001BC083F0000E00018F6F000E8E6F000E45
:100F38006C6F000E6D6F000E6E6F000E6F6F000EFF
:100F4800686F000E696F000E6A6F000E6B6F30C11C
:100F580031F031C132F032C133F033C134F080C0E6
:100F680035F081C036F082C037F083C038F0BFEC6E
:100F78000FF031C048F132C049F133C04AF134C0F2
:100F88004BF148C1E0F049C1E1F04AC1E2F04BC180
:100F9800E3F020EC18F0E0C084F0E1C085F0E2C096
:100FA80086F0E3C087F0000E356E000E366E000E38
:100FB800376E3F0E386EACC00AF0ADC00BF00C6A4D
:100FC8000D6A000E46EC17F00AC031F00BC032F083
:100FD8000CC033F00DC034F0BFEC0FF031C04CF151
:100FE80032C04DF133C04EF134C04FF14CC141F025
:100FF8004DC142F04EC143F04FC144F084C045F0AA
:1010080085C046F086C047F087C048F079EC1EF0EE
:1010180041C078F042C079F043C07AF044C07BF018
:10102800A4C00AF0A5C00BF00C6A0D6A000E46ECCD
:1010380017F00AC018F00BC019F00CC01AF00DC058
:101048001BF078C01CF079C01DF07AC01EF07BC080
:101058001FF0DBEC1AF0D8B034EF08F036EF08F0E8
:101068003FEF08F0000E0001706F000E716F000E68
:10107800726F000E736F000173BF47EF08F045EF02
:1010880008F04FEF08F0000E706F000E716F000E41
:10109800726F000E736FD2C00AF0D3C00BF00C6AE7
:1010A8000D6A000E46EC17F00AC018F00BC019F0D4
:1010B8000CC01AF00DC01BF070C01CF071C01DF000
:1010C80072C01EF073C01FF0DBEC1AF0D8B06FEFDF
:1010D80008F071EF08F082EF08F0D2C00AF0D3C030
:1010E8000BF00C6A0D6A000E46EC17F00AC070F09F
:1010F8000BC071F00CC072F00DC073F054C118F041
:1011080055C119F056C11AF057C11BF078C01CF030
:1011180079C01DF07AC01EF07BC01FF01FEC12F0E2
:1011280018C014F119C015F11AC016F11BC017F137
:1011380078C01CF079C01DF07AC01EF07BC01FF08B
:10114800F4C018F0F5C019F0F6C01AF0F7C01BF09B
:101158001FEC12F018C031F019C032F01AC033F089
:101168001BC034F070C035F071C036F072C037F073
:1011780073C038F0BFEC0FF031C070F032C071F0BE
:1011880033C072F034C073F014C131F015C132F0BD
:1011980016C133F017C134F070C035F071C036F0A5
:1011A80072C037F073C038F0BFEC0FF031C074F084
:1011B80032C075F033C076F034C077F00A0E1C6E7A
:1011C800D70E1D6E230E1E6E3C0E1F6ED2C00AF087
:1011D800D3C00BF00C6A0D6A000E46EC17F00AC07B
:1011E80018F00BC019F00CC01AF00DC01BF01FEC62
:1011F80012F018C050F119C051F11AC052F11BC0B9
:1012080053F150C118F051C119F052C11AF053C12D
:101218001BF074C01CF075C01DF076C01EF077C0BE
:101228001FF01FEC12F018C074F019C075F01AC046
:1012380076F01BC077F0000177BF27EF09F025EFA4
:1012480009F02FEF09F0000E746F000E756F000E95
:10125800766F000E776FD2C00AF0D3C00BF00C6A1D
:101268000D6A000E46EC17F00AC018F00BC019F012
:101278000CC01AF00DC01BF074C01CF075C01DF036
:1012880076C01EF077C01FF0DBEC1AF0D8B04FEF35
:1012980009F051EF09F062EF09F0D2C00AF0D3C0AB
:1012A8000BF00C6A0D6A000E46EC17F00AC074F0D9
:1012B8000BC075F00CC076F00DC077F078C024F143
:1012C80079C025F17AC026F17BC027F174C005F0FA
:1012D80075C006F076C007F077C008F058EC1AF031
:1012E80005500001BB6FA051AC5DF06FA151AD5925
:1012F800F16FF0C00AF0F1C00BF00C6A0D6A000E35
:1013080046EC17F00AC018F00BC019F00CC01AF020
:101318000DC01BF084C01CF085C01DF086C01EF0F7
:1013280087C01FF0DBEC1AF0D8B09DEF09F09FEFF3
:1013380009F0CAEF09F0000190059111D8A4A7EFB0
:1013480009F0A9EF09F0C6EF09F0C751D8A4AFEF2B
:1013580009F0B1EF09F0CAEF09F0C651D8A4B7EF08
:1013680009F0B9EF09F0CAEF09F08B84010EC36FD9
:10137800010EC76F010EC66FAAC0A8F0ABC0A9F0D6
:10138800CAEF09F0000EC66FCAEF09F0D0EC09F0F9
:1013980029EF03F026EF00F01BEF0EF0C751D8A499
:1013A800D8EF09F0DAEF09F024EF0AF084C005F06D
:1013B80085C006F086C007F087C008F058EC1AF020
:1013C80005C096F006C097F096C005F097C006F0E5
:1013D800000E086E640E076EA9EC1DF00550556EE0
:1013E80096C005F097C006F0000E086E640E076EF2
:1013F8001CEC1EF00550566E56C005F0066A000E2D
:10140800086E0A0E076E4DEC1CF00550566E96C01D
:1014180005F097C006F0000E086E0A0E076E1CEC69
:101428001EF00550576E55C00EF056C00FF057C04D
:1014380010F0200E116E020EB5EC18F059EF0EF0F8
:10144800A8C096F0A9C097F096C005F097C006F01E
:10145800000E086E640E076EA9EC1DF00550556E5F
:1014680096C005F097C006F0000E086E640E076E71
:101478001CEC1EF00550566E56C005F0066A000EAC
:10148800086E0A0E076E4DEC1CF00550566E96C09D
:1014980005F097C006F0000E086E0A0E076E1CECE9
:1014A8001EF00550576E55C00EF056C00FF057C0CD
:1014B80010F02D0E116E020EB5EC18F059EF0EF06B
:1014C8002D0E595C010E5A58D8B06DEF0AF06FEF27
:1014D8000AF083EF0AF0594A5A2A000E0E6E460E99
:1014E8000F6E460E106E200E116E020EB5EC18F03F
:1014F800130E0001AF6F880EAE6F59EF0EF0A6C045
:1015080005F0A7C006F0000E086E640E076EA9EC81
:101518001DF00550556EA6C005F0A7C006F0000ED8
:10152800086E640E076E1CEC1EF00550566E56C011
:1015380005F0066A000E086E0A0E076E4DEC1CF0E8
:101548000550566EA6C005F0A7C006F0000E086E3E
:101558000A0E076E1CEC1EF00550576E55C00EF0B3
:1015680056C00FF057C010F0200E116E020EB5ECE9
:1015780018F059EF0EF02D0E595C010E5A58D8B0DC
:10158800C8EF0AF0CAEF0AF0D9EF0AF0594A5A2A06
:10159800500E0E6E620E0F6E200E106E200E116E23
:1015A800020EB5EC18F07CEF0AF0A4C005F0A5C057
:1015B80006F0000E086E640E076EA9EC1DF00550CB
:1015C800556EA4C005F0A5C006F0000E086E640EA6
:1015D800076E1CEC1EF00550566E56C005F0066AE4
:1015E800000E086E0A0E076E4DEC1CF00550566E84
:1015F800A4C005F0A5C006F0000E086E0A0E076E1E
:101608001CEC1EF00550576E55C00EF056C00FF07A
:1016180057C010F0200E116E020EB5EC18F059EFFD
:101628000EF02D0E595C010E5A58D8B01EEF0BF073
:1016380020EF0BF02FEF0BF0594A5A2A690E0E6E65
:10164800620E0F6E200E106E200E116E020EB5EC9B
:1016580018F07CEF0AF0A2C005F0A3C006F0000E57
:10166800086E640E076EA9EC1DF00550556EA2C0F9
:1016780005F0A3C006F0000E086E640E076E1CECA1
:101688001EF00550566E56C005F0066A000E086E2C
:101698000A0E076E4DEC1CF00550566EA2C005F000
:1016A800A3C006F0000E086E0A0E076E1CEC1EF0B2
:1016B8000550576E55C00EF056C00FF057C010F0C9
:1016C800200E116E020EB5EC18F059EF0EF02D0E2B
:1016D800595C010E5A58D8B074EF0BF076EF0BF046
:1016E80085EF0BF0594A5A2A500E0E6E4C0E0F6EAB
:1016F8004D0E106E200E116E020EB5EC18F07CEF38
:101708000AF0D2C005F0D3C006F0000E086E640ED1
:10171800076EA9EC1DF00550556ED2C005F0D3C078
:1017280006F0000E086E640E076E1CEC1EF00550E5
:10173800566E56C005F0066A000E086E0A0E076E51
:101748004DEC1CF00550566ED2C005F0D3C006F023
:10175800000E086E0A0E076E1CEC1EF00550576E40
:1017680055C00EF056C00FF057C010F0200E116E85
:10177800020EB5EC18F059EF0EF02D0E595C010E63
:101788005A58D8B0CAEF0BF0CCEF0BF0DBEF0BF0E8
:10179800594A5A2A480E0E6E590E0F6E530E106E85
:1017A800200E116E020EB5EC18F07CEF0AF0A0C006
:1017B80005F0A1C006F0000E086E640E076EA9ECD5
:1017C8001DF00550556EA0C005F0A1C006F0000E32
:1017D800086E640E076E1CEC1EF00550566E56C05F
:1017E80005F0066A000E086E0A0E076E4DEC1CF036
:1017F8000550566EA0C005F0A1C006F0000E086E98
:101808000A0E076E1CEC1EF00550576E55C00EF000
:1018180056C00FF057C010F0200E116E020EB5EC36
:1018280018F059EF0EF02D0E595C010E5A58D8B029
:1018380020EF0CF022EF0CF031EF0CF0594A5A2A45
:10184800430E0E6E470E0F6E010E106E200E116EB7
:10185800020EB5EC18F07CEF0AF09EC005F09FC0B0
:1018680006F0000E086E640E076EA9EC1DF0055018
:10187800556E9EC005F09FC006F0000E086E640EFF
:10188800076E1CEC1EF00550566E56C005F0066A31
:10189800000E086E0A0E076E4DEC1CF00550566ED1
:1018A8009EC005F09FC006F0000E086E0A0E076E77
:1018B8001CEC1EF00550576E55C00EF056C00FF0C8
:1018C80057C010F0200E116E020EB5EC18F059EF4B
:1018D8000EF02D0E595C010E5A58D8B076EF0CF068
:1018E80078EF0CF087EF0CF0594A5A2A430E0E6E27
:1018F800470E0F6E020E106E200E116E020EB5EC22
:1019080018F07CEF0AF09CC005F09DC006F0000EB0
:10191800086E640E076EA9EC1DF00550556E9CC04C
:1019280005F09DC006F0000E086E640E076E1CECF4
:101938001EF00550566E56C005F0066A000E086E79
:101948000A0E076E4DEC1CF00550566E9CC005F053
:101958009DC006F0000E086E0A0E076E1CEC1EF005
:101968000550576E55C00EF056C00FF057C010F016
:10197800200E116E020EB5EC18F059EF0EF02D0E78
:10198800595C010E5A58D8B0CCEF0CF0CEEF0CF0E1
:10199800DDEF0CF0594A5A2A430E0E6E000E0F6EF8
:1019A800460E106E200E116E020EB5EC18F07CEF8C
:1019B8000AF09AC005F09BC006F0000E086E640E8F
:1019C800076EA9EC1DF00550556E9AC005F09BC036
:1019D80006F0000E086E640E076E1CEC1EF0055033
:1019E800566E56C005F0066A000E086E0A0E076E9F
:1019F8004DEC1CF00550566E9AC005F09BC006F0E1
:101A0800000E086E0A0E076E1CEC1EF00550576E8D
:101A180055C00EF056C00FF057C010F0200E116ED2
:101A2800020EB5EC18F059EF0EF02D0E595C010EB0
:101A38005A58D8B022EF0DF024EF0DF033EF0DF027
:101A4800594A5A2A4D0E0E6E000E0F6E640E106E15
:101A5800200E116E020EB5EC18F07CEF0AF098C05B
:101A680005F099C006F0000E086E640E076EA9EC2A
:101A78001DF00550556E98C005F099C006F0000E8F
:101A8800086E640E076E1CEC1EF00550566E56C0AC
:101A980005F0066A000E086E0A0E076E4DEC1CF083
:101AA8000550566E98C005F099C006F0000E086EF5
:101AB8000A0E076E1CEC1EF00550576E55C00EF04E
:101AC80056C00FF057C010F0200E116E020EB5EC84
:101AD80018F059EF0EF02D0E595C010E5A58D8B077
:101AE80078EF0DF07AEF0DF089EF0DF0594A5A2A88
:101AF800530E0E6E200E0F6E010E106E200E116E1C
:101B0800020EB5EC18F07CEF0AF0ACC005F0ADC0E1
:101B180006F0000E086E640E076EA9EC1DF0055065
:101B2800556EACC005F0ADC006F0000E086E640E30
:101B3800076E1CEC1EF00550566E56C005F0066A7E
:101B4800000E086E0A0E076E4DEC1CF00550566E1E
:101B5800ACC005F0ADC006F0000E086E0A0E076EA8
:101B68001CEC1EF00550576E55C00EF056C00FF015
:101B780057C010F0200E116E020EB5EC18F059EF98
:101B88000EF02D0E595C010E5A58D8B0CEEF0DF05C
:101B9800D0EF0DF0DFEF0DF0594A5A2A530E0E6EB2
:101BA800200E0F6E020E106E200E116E020EB5EC96
:101BB80018F07CEF0AF0AAC005F0ABC006F0000EE2
:101BC800086E640E076EA9EC1DF00550556EAAC08C
:101BD80005F0ABC006F0000E086E640E076E1CEC34
:101BE8001EF00550566E56C005F0066A000E086EC7
:101BF8000A0E076E4DEC1CF00550566EAAC005F093
:101C0800ABC006F0000E086E0A0E076E1CEC1EF044
:101C18000550576E55C00EF056C00FF057C010F063
:101C2800200E116E020EB5EC18F059EF0EF00001FF
:101C3800BD514A6E4B6A4B50000AD8B426EF0EF0DD
:101C480059EF0EF04A50000AD8B4D2EF09F0010A51
:101C5800D8B464EF0AF0030AD8B4BFEF0AF0010A57
:101C6800D8B415EF0BF0070AD8B46BEF0BF0010AE4
:101C7800D8B4C1EF0BF0030AD8B417EF0CF0010A7F
:101C8800D8B46DEF0CF00F0AD8B4C3EF0CF0010A0A
:101C9800D8B419EF0DF0030AD8B46FEF0DF0010AAC
:101CA800D8B4C5EF0DF059EF0EF00001AE51AF11E9
:101CB800D8B461EF0EF063EF0EF0BEEF0FF0AE0791
:101CC800D8A0AF07AE51AF11D8A46DEF0EF06FEFEB
:101CD8000EF0BEEF0FF0000EBD6FCA05D8A477EF67
:101CE8000EF079EF0EF0BEEF0FF0000ECA6FACC029
:101CF8000CF0ADC00DF0000E4EEC1EF0AAC00CF0BA
:101D0800ABC00DF0020E4EEC1EF0A6C00CF0A7C042
:101D18000DF0040E4EEC1EF0A4C00CF0A5C00DF0A2
:101D2800060E4EEC1EF0A2C00CF0A3C00DF0080E7B
:101D38004EEC1EF0D2C00CF0D3C00DF00A0E4EECE3
:101D48001EF0A0C00CF0A1C00DF00C0E4EEC1EF061
:101D58009EC00CF09FC00DF00E0E4EEC1EF09CC005
:101D68000CF09DC00DF0100E4EEC1EF09AC00CF059
:101D78009BC00DF0120E4EEC1EF098C00CF099C0EE
:101D88000DF0140E4EEC1EF0000E1C6E000E1D6EB3
:101D9800800E1E6E3F0E1F6ED2C00AF0D3C00BF02D
:101DA8000C6A0D6A000E46EC17F00AC018F00BC05A
:101DB80019F00CC01AF00DC01BF01FEC12F018C07F
:101DC80031F019C032F01AC033F01BC034F0A4C08F
:101DD8000AF0A5C00BF00C6A0D6A000E46EC17F06D
:101DE8000AC035F00BC036F00CC037F00DC038F023
:101DF80034EC14F031C054F132C055F133C056F10F
:101E080034C057F1A2C00AF0A3C00BF00C6A0D6AE7
:101E1800000E46EC17F00AC0F4F00BC0F5F00CC049
:101E2800F6F00DC0F7F0000E316E000E326E800E27
:101E3800336E3F0E346E000E1C6E000E1D6E200EAB
:101E48001E6E410E1F6EF4C018F0F5C019F0F6C0F2
:101E58001AF0F7C01BF01FEC12F018C035F019C0CB
:101E680036F01AC037F01BC038F034EC14F031C02B
:101E7800F4F032C0F5F033C0F6F034C0F7F0000EDD
:101E88001C6E000E1D6EC80E1E6E420E1F6E9EC08A
:101E98000AF09FC00BF00C6A0D6A000E46EC17F0B2
:101EA8000AC018F00BC019F00CC01AF00DC01BF0D6
:101EB8001FEC12F018C031F019C032F01AC033F01C
:101EC8001BC034F0CD0E1C6ECC0E1D6ECC0E1E6EDB
:101ED8003D0E1F6E9CC00AF09DC00BF00C6A0D6A87
:101EE800000E46EC17F00AC018F00BC019F00CC031
:101EF8001AF00DC01BF01FEC12F018C035F019C015
:101F080036F01AC037F01BC038F0BFEC0FF031C004
:101F18007CF032C07DF033C07EF034C07FF07CC0EE
:101F280018F07DC019F07EC01AF07FC01BF06F0E4C
:101F38001C6E120E1D6E830E1E6E3A0E1F6E1FEC67
:101F480012F018C07CF019C07DF01AC07EF01BC0DA
:101F58007FF09AC00AF09BC00BF00C6A0D6A000E65
:101F680046EC17F00AC02CF10BC02DF10CC02EF175
:101F78000DC02FF112003450800B3D6E34503424C4
:101F88003F6E33AECAEF0FF0CCEF0FF0CDEF0FF08E
:101F98003F803F50D8B4D3EF0FF0D5EF0FF0EAEF02
:101FA8000FF03F28D8A4DBEF0FF0DDEF0FF0E5EFDF
:101FB8000FF0000E316E000E326E000E336E000E02
:101FC800346E338E000E346EF2EF0FF0000E316E69
:101FD800000E326E000E336E000E346E3850800BD9
:101FE8003E6E3D503E18D8B4FCEF0FF0FEEF0FF0F8
:101FF800FFEF0FF03D8C385038243E6E37AE07EFB8
:1020080010F009EF10F00AEF10F03E803E50D8B4FF
:1020180010EF10F012EF10F027EF10F03E28D8A4C0
:1020280018EF10F01AEF10F022EF10F0000E356ED6
:10203800000E366E000E376E000E386E378E000EAC
:10204800386E2FEF10F0000E356E000E366E000E53
:10205800376E000E386E3F503E5CD8B036EF10F049
:1020680038EF10F05FEF10F03DAC3DEF10F03FEFB0
:1020780010F041EF10F0800E3D1A3FC040F03EC016
:102088003FF040C03EF031C040F035C031F040C0B4
:1020980035F032C040F036C032F040C036F033C0C0
:1020A80040F037C033F040C037F034C040F038C09B
:1020B80034F040C038F0000E406E3F503EC039F05A
:1020C8003A6A395E000E3A5A3ABE74EF10F03A5046
:1020D80009E11A0E395CD8A074EF10F076EF10F011
:1020E800ADEF10F03150321033103410D8A47FEF18
:1020F80010F082EF10F0010E83EF10F0000E406E2A
:10210800000E316E000E326E000E336E000E346E0D
:102118003EC03FF0B6EF10F040A095EF10F097EFFB
:1021280010F09DEF10F0D89040300109406E9FEFFD
:1021380010F0D890403231A0A4EF10F0A6EF10F0C4
:10214800A7EF10F0408E3434343233323232313229
:102158003F2A3E503F5CD8A0B4EF10F0B6EF10F025
:1021680090EF10F03DBCBBEF10F0BDEF10F0FDEFAD
:1021780010F03F50D8A4C3EF10F0C5EF10F0CFEF28
:1021880010F0000E316E000E326E000E336E000E2F
:10219800346E1EEF12F03550312636503222375049
:1021A80033223850342234A0DCEF10F0DEEF10F088
:1021B8008AEF11F040A0E3EF10F0E5EF10F0EBEF3D
:1021C80010F0D89040300109406EEDEF10F0D89033
:1021D800403231A0F2EF10F0F4EF10F0F5EF10F00C
:1021E800408E343434323332323231323F2A8AEF3D
:1021F80011F03550315C365032583750335834501E
:10220800800A396E3850800A3958D8B00EEF11F06C
:1022180010EF11F03BEF11F03150355C396E325050
:1022280036583A6E335037583B6E345038583C6EF7
:10223800FF0E3924316EFF0E3A20326EFF0E3B201E
:10224800336EFF0E3C20346E800E3D1A406C4050B9
:10225800D8A431EF11F033EF11F043EF11F0010E74
:102268003126000E32223322342243EF11F035504A
:10227800315E3650325A3750335A3850345A31500A
:10228800321033103410D8A44CEF11F04EEF11F087
:1022980083EF11F04050D8A454EF11F056EF11F02D
:1022A80083EF11F0000E316E000E326E000E336EA9
:1022B800000E346E1EEF12F0D890313632363336B7
:1022C800343640AE6AEF11F06CEF11F06DEF11F09B
:1022D800318040A072EF11F074EF11F078EF11F037
:1022E800D88040367AEF11F0D89040363F50D8B4B5
:1022F80080EF11F082EF11F083EF11F03F0633AE5B
:1023080088EF11F08AEF11F060EF11F0000E3E6EC9
:1023180040AE91EF11F093EF11F0ABEF11F040C028
:1023280039F07F0E3916D8B49CEF11F09EEF11F0FA
:10233800A2EF11F0010E3E6EABEF11F031A0A7EF46
:1023480011F0A9EF11F0ABEF11F09EEF11F03E5034
:10235800D8B4B1EF11F0B3EF11F0DEEF11F0010EC8
:102368003126000E32223322342234A0BEEF11F07F
:10237800C0EF11F0DEEF11F031C039F032C03AF0A1
:1023880033C03BF034C03CF03C343C323B323A3250
:10239800393239C031F03AC032F03BC033F03CC07A
:1023A80034F03F28D8B4DBEF11F0DDEF11F0DEEFA9
:1023B80011F03F2A3F28D8B4E4EF11F0E6EF11F00E
:1023C800EEEF11F03F50D8A4ECEF11F0EEEF11F062
:1023D80000EF12F0000E316E000E326E000E336EFA
:1023E800000E346E3F50D8A4FCEF11F0FEEF11F050
:1023F80000EF12F0000E3D6E3FA005EF12F007EF60
:1024080012F00AEF12F0338E0BEF12F0339ED890D1
:102418003F30346E3DAE13EF12F015EF12F016EFA9
:1024280012F0348E31C031F032C032F033C033F0A4
:1024380034C034F012001B50800B246E1B501B2438
:102448002A6E1AAE2AEF12F02CEF12F02DEF12F0CE
:102458002A802A50D8B433EF12F035EF12F048EF43
:1024680012F02A28D8A43BEF12F03DEF12F045EF06
:1024780012F0000E186E000E196E000E1A6E000E85
:102488001B6E1A8E50EF12F0000E186E000E196EA9
:10249800000E1A6E000E1B6E1F50800B241A1F5060
:1024A8001F24256E1EAE5BEF12F05DEF12F05EEF9B
:1024B80012F025802550D8B464EF12F066EF12F0C0
:1024C80079EF12F02528D8A46CEF12F06EEF12F015
:1024D80076EF12F0000E1C6E000E1D6E000E1E6EC2
:1024E800000E1F6E1E8E81EF12F0000E1C6E000E85
:1024F8001D6E000E1E6E000E1F6E2550D8B487EF9D
:1025080012F089EF12F091EF12F02A50D8A48FEF51
:1025180012F091EF12F09BEF12F0000E186E000E01
:10252800196E000E1A6E000E1B6E33EF14F01E505B
:102538001802F3CF2FF0F4CF30F02F50266E276A11
:10254800286A296A30502B6E2C6A2D6A2E6A1D5013
:102558001902F3CF2FF0F4CF30F02F502626000EBB
:1025680027222822292230502B26000E2C222D2209
:102578002E221C501A02F3CF2FF0F4CF30F02F5038
:102588002626000E27222822292230502B26000E2C
:102598002C222D222E2228C029F027C028F026C060
:1025A80027F0266A1C501902F3CF2FF0F4CF30F031
:1025B8002F50262630502722000E2822000E2922CE
:1025C8001D501802F3CF2FF0F4CF30F02F502626ED
:1025D80030502722000E2822000E292228C029F078
:1025E80027C028F026C027F0266A1C501802F3CF0F
:1025F8002FF0F4CF30F02F50262630502722000E2F
:102608002822000E29221E501902F3CF2FF0F4CFF2
:1026180030F02F502B2630502C22000E2D22000E89
:102628002E221D501A02F3CF2FF0F4CF30F02F5086
:102638002B2630502C22000E2D22000E2E221E504A
:102648001A02F3CF2FF0F4CF30F02F50206E305015
:10265800216E226A236A22C023F021C022F020C002
:1026680021F0206A20502B2621502C2222502D2286
:1026780023502E2226C020F027C021F028C022F0A7
:1026880029C023F0190E4EEF13F0D89023322232CE
:1026980021322032E82E49EF13F020502B2621500A
:1026A8002C2222502D2223502E2228C029F027C068
:1026B80028F026C027F0266A25502AC020F0216A73
:1026C8002026000E2122820E20242F6EFF0E2120AC
:1026D800306E84EF13F0D8902B362C362D362E36EC
:1026E80029AE79EF13F07BEF13F07CEF13F02B801A
:1026F800D89026362736283629362F06D8A0300611
:102708002DAE89EF13F08BEF13F06FEF13F0000E7F
:10271800256E29AE92EF13F094EF13F0B8EF13F093
:10272800FF0E2614206EFF0E2714216EFF0E2814AC
:10273800226E7F0E2914236E2050211022102310A0
:10274800D8B4A9EF13F0ABEF13F0AFEF13F0010E0D
:10275800256EB8EF13F02BA0B4EF13F0B6EF13F01B
:10276800B8EF13F0ABEF13F02550D8B4BEEF13F069
:10277800C0EF13F0E4EF13F0010E2B26000E2C220D
:102788002D222E222EA0CBEF13F0CDEF13F0E4EF85
:1027980013F02BC020F02CC021F02DC022F02EC049
:1027A80023F02334233222322132203220C02BF06E
:1027B80021C02CF022C02DF023C02EF02F4A302A41
:1027C80030BEEFEF13F0305008E12F28D8A0EFEF1C
:1027D80013F0F1EF13F0FBEF13F0000E2B6E000E69
:1027E8002C6E800E2D6E7F0E2E6E29EF14F030BEEB
:1027F80008EF14F0305006E12F04D8B006EF14F0BB
:1028080008EF14F014EF14F0000E2B6E000E2C6E6F
:10281800000E2D6E000E2E6E000E246E29EF14F0A1
:102828002FC02AF0FF0E2B16FF0E2C167F0E2D162A
:10283800000E2E162AA023EF14F025EF14F026EF31
:1028480014F02D8ED8902A302E6E24502E122BC0C4
:1028580018F02CC019F02DC01AF02EC01BF0120071
:102868003450800B416E34503424486E33AE3FEF01
:1028780014F041EF14F042EF14F048804850D8B4F7
:1028880048EF14F04AEF14F05FEF14F04828D8A48A
:1028980050EF14F052EF14F05AEF14F0000E316EAE
:1028A800000E326E000E336E000E346E338E000E44
:1028B800346E67EF14F0000E316E000E326E000EAB
:1028C800336E000E346E3850800B411A385038245D
:1028D800496E37AE72EF14F074EF14F075EF14F020
:1028E80049804950D8B47BEF14F07DEF14F092EF93
:1028F80014F04928D8A483EF14F085EF14F08DEF75
:1029080014F0000E356E000E366E000E376E000E97
:10291800386E378E000E386E9AEF14F0000E356E52
:10292800000E366E000E376E000E386E35503610BB
:1029380037103810D8A4A3EF14F0A5EF14F0BDEFAA
:1029480014F0000E316E000E326E000E336E000E63
:10295800346E800E33127F0E34124150341231C05F
:1029680031F032C032F033C033F034C034F000EF0D
:1029780016F04850D8A4C3EF14F0C5EF14F0CFEF09
:1029880014F0000E316E000E326E000E336E000E23
:10299800346E00EF16F0495048C039F03A6A395E93
:1029A800000E3A5A7F0E3924426E000E3A20436ECA
:1029B80031C03DF032C03EF033C03FF034C040F08B
:1029C800000E316E000E326E000E336E000E346E45
:1029D800000E446E000E456E000E466E000E476EE9
:1029E800000E496E30EF15F04950D8B4FEEF14F0E0
:1029F80000EF15F017EF15F0D8903D363E363F360C
:102A08004036D890313632363336343647AE0FEF4B
:102A180015F011EF15F012EF15F03180D89044360B
:102A280045364636473635503D5C36503E58375069
:102A38003F5838504058D8A024EF15F026EF15F02D
:102A48002FEF15F0478C35503D5E36503E5A3750C3
:102A58003F5A3850405A492A190E496436EF15F042
:102A680038EF15F0F8EF14F03D503E103F104010CD
:102A7800D8B441EF15F043EF15F05BEF15F0448043
:102A88005BEF15F0D890313632363336343647AEF0
:102A980050EF15F052EF15F053EF15F03180D89044
:102AA80044364536463647364206D8A0430633AE46
:102AB80060EF15F062EF15F046EF15F0000E496E65
:102AC80047AE69EF15F06BEF15F08FEF15F0FF0EBD
:102AD8004414396EFF0E45143A6EFF0E46143B6ED1
:102AE8007F0E47143C6E39503A103B103C10D8B456
:102AF80080EF15F082EF15F086EF15F0010E496EA4
:102B08008FEF15F031A08BEF15F08DEF15F08FEFEB
:102B180015F082EF15F04950D8B495EF15F097EFFE
:102B280015F0BBEF15F0010E3126000E32223322CC
:102B3800342234A0A2EF15F0A4EF15F0BBEF15F086
:102B480031C039F032C03AF033C03BF034C03CF009
:102B58003C343C323B323A32393239C031F03AC037
:102B680032F03BC033F03CC034F0424A432A43BE03
:102B7800C6EF15F0435008E14228D8A0C6EF15F07B
:102B8800C8EF15F0D3EF15F0000E436E4268000E43
:102B9800316E000E326E000E336E000E346E43BE80
:102BA800E0EF15F0435006E14204D8B0DEEF15F02F
:102BB800E0EF15F0EEEF15F0000E436E000E426EDA
:102BC800000E316E000E326E000E336E000E346E43
:102BD800000E416E42C048F048A0F5EF15F0F7EF3F
:102BE80015F0FAEF15F0338EFBEF15F0339ED89001
:102BF8004830346EB1EF14F01200B7EF16F0000E43
:102C0800066E3F0E056E45EF17F0000E066E060EB7
:102C1800056E45EF17F0000E066E5B0E056E45EF6C
:102C280017F0000E066E4F0E056E45EF17F0000EFA
:102C3800066E660E056E45EF17F0000E066E6D0EF9
:102C4800056E45EF17F0000E066E7D0E056E45EF1A
:102C580017F0000E066E070E056E45EF17F0000E12
:102C6800066E7F0E056E45EF17F0000E066E6F0EAE
:102C7800056E45EF17F0000E066E000E056E45EF67
:102C880017F0000E066E790E056E45EF17F0000E70
:102C9800066E780E056E45EF17F0000E066E770E7D
:102CA800056E45EF17F0000E066E1C0E056E45EF1B
:102CB80017F0000E066E400E056E45EF17F0000E79
:102CC800066E370E056E45EF17F0000E066E540EB1
:102CD800056E45EF17F0000E066E150E056E45EFF2
:102CE80017F0000E066E310E056E45EF17F0000E58
:102CF800066E5E0E056E45EF17F0000E066E380E76
:102D0800056E45EF17F0000E066E6E0E056E45EF68
:102D180017F0000E066E3D0E056E45EF17F0000E1B
:102D2800066E710E056E45EF17F0000E066E390E31
:102D3800056E45EF17F0000E066E730E056E45EF33
:102D480017F0000E066E7C0E056E45EF17F0000EAC
:102D5800066E760E056E45EF17F0000E066E100E25
:102D6800056E45EF17F005C007F006C008F00850DB
:102D7800000AD8B4C2EF16F045EF17F00750000A62
:102D8800D8B403EF16F0010AD8B409EF16F0030A15
:102D9800D8B40FEF16F0010AD8B415EF16F0070AE9
:102DA800D8B41BEF16F0010AD8B421EF16F0030AC5
:102DB800D8B427EF16F0010AD8B42DEF16F00F0A91
:102DC800D8B433EF16F0010AD8B439EF16F0030A75
:102DD800D8B43FEF16F02A0AD8B43FEF16F00D0A20
:102DE800D8B45DEF16F06C0AD8B451EF16F0020AA9
:102DF800D8B499EF16F0060AD8B445EF16F0030ACE
:102E0800D8B493EF16F0010AD8B48DEF16F00F0A74
:102E1800D8B4ABEF16F0040AD8B481EF16F0010A63
:102E2800D8B46FEF16F0030AD8B463EF16F01E0A91
:102E3800D8B49FEF16F0020AD8B475EF16F0010A5D
:102E4800D8B421EF16F00A0AD8B487EF16F03B0A77
:102E5800D8B4A5EF16F0060AD8B47BEF16F00D0A21
:102E6800D8B4B1EF16F0070AD8B469EF16F01A0A09
:102E7800D8B44BEF16F0010AD8B457EF16F045EF67
:102E880017F01200126E1250D8B44DEF17F04FEF32
:102E980017F071EF17F00DBE56EF17F054EF17F05B
:102EA80071EF17F00AC00EF00BC00FF00CC010F055
:102EB8000DC011F00E1E0F1E101E111E0E2A000E40
:102EC8000F22102211220EC014F00FC015F010C0EE
:102ED80016F011C017F079EF17F00AC014F00BC004
:102EE80015F00CC016F00DC017F00A500B100C109E
:102EF8000D10D8A482EF17F084EF17F08EEF17F0BB
:102F0800000E0A6E000E0B6E000E0C6E000E0D6E9B
:102F18001FEF18F0960E136E98EF17F0132AD8903B
:102F28001732163215321432000E14140E6E000EBB
:102F380015140F6E000E1614106EFE0E1714116E77
:102F48000E500F1010101110D8A4ADEF17F0AFEFFE
:102F580017F092EF17F0BDEF17F0132A010E1426A1
:102F6800000E152216221722D89017321632153263
:102F78001432000E14140E6E000E15140F6E000E8F
:102F88001614106EFF0E1714116E0E500F1010103D
:102F98001110D8A4D2EF17F0D4EF17F0B1EF17F053
:102FA800DCEF17F01306D890143615361636173698
:102FB80016BEE1EF17F0E3EF17F0EBEF17F0020E94
:102FC8001360E9EF17F0EBEF17F0D6EF17F013B037
:102FD800F0EF17F0F2EF17F0F3EF17F0169ED89016
:102FE800133213C00EF00F6A106A116A0EC011F086
:102FF800106A0F6A0E6A0E5014120F5015121050F4
:103008001612115017121250D8B40DEF18F00FEF16
:1030180018F017EF18F00DBE16EF18F014EF18F0AF
:1030280017EF18F0178E14C00AF015C00BF016C071
:103038000CF017C00DF01200CD0E0001E46FCC0E9D
:10304800E56F4C0EE66F3D0EE76F660E516E660E2D
:10305800526E660E536E3F0E546E000E4D6E000E8D
:103068004E6E200E4F6E410E506EE0C049F0E1C02A
:103078004AF0E2C04BF0E3C04CF0DBEC1BF049C077
:10308800E8F04AC0E9F04BC0EAF04CC0EBF0E4C00D
:103098001CF0E5C01DF0E6C01EF0E7C01FF0E8C058
:1030A80045F0E9C046F0EAC047F0EBC048F060C020
:1030B80041F061C042F062C043F063C044F079EC73
:1030C8001EF041C018F042C019F043C01AF044C0C5
:1030D8001BF01FEC12F018C0ECF019C0EDF01AC08C
:1030E800EEF01BC0EFF060C041F061C042F062C07A
:1030F80043F063C044F0ECC045F0EDC046F0EEC0CC
:1031080047F0EFC048F079EC1EF041C060F042C0D3
:1031180061F043C062F044C063F000018DBFA0EFCE
:1031280018F0F40E8C5D010E8D59D8B09EEF18F092
:10313800A0EF18F0ACEF18F08C4B8D2BE0C0E0F04E
:10314800E1C0E1F0E2C0E2F0E3C0E3F0B4EF18F070
:1031580060C0E0F061C0E1F062C0E2F063C0E3F09B
:103168001200126E1204D8A4BCEF18F0BEEF18F0CB
:103178001FEF19F00001884B892B895109E1C90E0D
:10318800885DD8A0CAEF18F0CCEF18F0D2EF18F08D
:10319800000E896F000E886F45EF19F0895109E11B
:1031A800970E885DD8A0DBEF18F0DDEF18F000EF80
:1031B80019F0000E066E0A0E056E01EC16F00550A9
:1031C800096E000E066E0A0E056E01EC16F005502B
:1031D8000A6E000E066E0A0E056E01EC16F005501A
:1031E8000B6E000E066E0A0E056E01EC16F0055009
:1031F800AFEC1CF045EF19F010C005F0066A01ECC1
:1032080016F00550096E0FC005F0066A01EC16F0BD
:1032180005500A6E0EC005F0066A01EC16F005505E
:103228000B6E11C005F0066A01EC16F00550AFEC04
:103238001CF045EF19F0020E1218D8A426EF19F069
:1032480028EF19F045EF19F010C005F0066A01ECF7
:1032580016F00550096E0FC005F0066A01EC16F06D
:1032680005500A6E0EC005F0066A01EC16F005500E
:103278000B6E11C005F0066A01EC16F005505DEC06
:103288001BF01200056E800E066E05AE4EEF19F0AB
:1032980050EF19F053EF19F08A8C54EF19F08A9C0B
:1032A800D8900630066E055006140009D8B45FEFB2
:1032B80019F061EF19F064EF19F08A8665EF19F0DB
:1032C8008A96D8900630066E055006140009D8B4C0
:1032D80070EF19F072EF19F075EF19F08A8476EF34
:1032E80019F08A94D8900630066E05500614000925
:1032F800D8B481EF19F083EF19F086EF19F08A88B6
:1033080087EF19F08A98D8900630066E0550061493
:103318000009D8B492EF19F094EF19F097EF19F06B
:103328008A8A98EF19F08A9AD8900630066E055066
:1033380006140009D8B4A3EF19F0A5EF19F0A8EF07
:1033480019F08A8EA9EF19F08A9ED8900630066E79
:10335800055006140009D8B4B4EF19F0B6EF19F007
:10336800B9EF19F08B80BAEF19F08B90D89006302E
:10337800066E055006140009D8B4C5EF19F0C7EF5A
:1033880019F0CAEF19F08A82CBEF19F08A92D89017
:103398000630066E1200056E800E066E05AED7EF7B
:1033A80019F0D9EF19F0DCEF19F08B80DDEF19F087
:1033B8008B90D8900630066E055006140009D8B4D4
:1033C800E8EF19F0EAEF19F0EDEF19F08A88EEEF5F
:1033D80019F08A98D8900630066E05500614000930
:1033E800D8B4F9EF19F0FBEF19F0FEEF19F08A8A5B
:1033F800FFEF19F08A9AD8900630066E0550061429
:103408000009D8B40AEF1AF00CEF1AF00FEF1AF00F
:103418008A8610EF1AF08A96D8900630066E055004
:1034280006140009D8B41BEF1AF01DEF1AF020EFAC
:103438001AF08A8421EF1AF08A94D8900630066E22
:10344800055006140009D8B42CEF1AF02EEF1AF024
:1034580031EF1AF08A8232EF1AF08A92D890063049
:10346800066E055006140009D8B43DEF1AF03FEF78
:103478001AF042EF1AF08A8C43EF1AF08A9CD8901F
:103488000630066E055006140009D8B44EEF1AF03F
:1034980050EF1AF053EF1AF08A8E54EF1AF08A9E02
:1034A800D8900630066E1200073408340E6E0E509F
:1034B800D8A461EF1AF063EF1AF06DEF1AF0000E5E
:1034C800056E000E066E000E076E000E086EDAEF2F
:1034D8001AF005C009F006C00AF007C00BF008C0D2
:1034E8000CF0200E7DEF1AF0D8900C320B320A3215
:1034F8000932E82E78EF1AF009500D6E078EFF0E8C
:103508000516FF0E0616FF0E0716000E0816960E75
:103518000E5E0EBE94EF1AF092EF1AF0AAEF1AF0B0
:103528000E50800A970FD8B09CEF1AF09EEF1AF051
:10353800A0EF1AF063EF1AF0D8900832073206327B
:1035480005320E3EA0EF1AF0C2EF1AF01F0E0E64FD
:10355800B0EF1AF0B2EF1AF0BAEF1AF063EF1AF000
:10356800D89005360636073608360E060E50D8A40B
:10357800C0EF1AF0C2EF1AF0B4EF1AF00D50D8B439
:10358800C8EF1AF0CAEF1AF0D2EF1AF0081E071E99
:10359800061E056C000E06220722082205C005F04B
:1035A80006C006F007C007F008C008F01200000EB9
:1035B8001814206E000E1914216E800E1A14226E33
:1035C8007F0E1B14236E2050211022102310D8A424
:1035D800F0EF1AF0F2EF1AF0FAEF1AF0000E186E88
:1035E800000E196E000E1A6E000E1B6E000E1C14D3
:1035F800206E000E1D14216E800E1E14226E7F0E8A
:103608001F14236E2050211022102310D8A40FEF6E
:103618001BF011EF1BF019EF1BF0000E1C6E000ED3
:103628001D6E000E1E6E000E1F6E1BAE1EEF1BF0F1
:1036380020EF1BF029EF1BF0186C191ED8B0192ABF
:103648001A1ED8B01A2A800E1B561FAE2EEF1BF07A
:1036580030EF1BF039EF1BF01C6C1D1ED8B01D2A73
:103668001E1ED8B01E2A800E1F56000E181A000EF5
:10367800191A000E1A1A800E1B1A000E1C1A000EB8
:103688001D1A000E1E1A800E1F1A1C50185C1D50A1
:1036980019581E501A581F501B58D8B056EF1BF017
:1036A80058EF1BF05BEF1BF0D8905CEF1BF0D88055
:1036B80012000D6E8A9E8A9C8A928A948A968A9AA9
:1036C8008A988B908B8A8B8C8B8E0B50CFEC19F051
:1036D800070E0C6E3A0EE82EFED70C2EFCD700D043
:1036E8008A9E8A9C8A928A948A968A9A8A988B90C9
:1036F8008B8A8B8C8B9E0A50CFEC19F0070E0C6EC0
:103708003A0EE82EFED70C2EFCD700D08A9E8A9C53
:103718008A928A948A968A9A8A988B908B8A8B9CAA
:103728008B9E0950CFEC19F0070E0C6E3A0EE82E5E
:10373800FED70C2EFCD700D08A9E8A9C8A928A9447
:103748008A968A9A8A988B908B9A8B8C8B8E0D503E
:10375800CFEC19F00001B905D8A4B5EF1BF0B7EF0D
:103768001BF0B8EF1BF08B80C405D8A4BEEF1BF08C
:10377800C0EF1BF0C1EF1BF08A8EC305D8A4C7EFBA
:103788001BF0C9EF1BF0CAEF1BF08A8C070E0C6EFA
:103798003A0EE82EFED70C2EFCD700D08A9E8A9CC3
:1037A8008A928A948A968A9A8A988B9012000A0E2C
:1037B8000001DC6FD70EDD6F230EDE6F3C0EDF6F6E
:1037C80008C11CF009C11DF00AC11EF00BC11FF091
:1037D800DCC045F0DDC046F0DEC047F0DFC048F091
:1037E800000E416E000E426E800E436E3F0E446E18
:1037F80079EC1EF041C018F042C019F043C01AF02D
:1038080044C01BF01FEC12F018C0D4F019C0D5F05A
:103818001AC0D6F01BC0D7F049C01CF04AC01DF032
:103828004BC01EF04CC01FF0DCC018F0DDC019F012
:10383800DEC01AF0DFC01BF01FEC12F018C031F028
:1038480019C032F01AC033F01BC034F0D4C035F0C0
:10385800D5C036F0D6C037F0D7C038F0BFEC0FF07F
:1038680031C0D8F032C0D9F033C0DAF034C0DBF060
:10387800D8C008F1D9C009F1DAC00AF1DBC00BF1F0
:10388800D8C049F0D9C04AF0DAC04BF0DBC04CF0E0
:103898001200000E0A6E08BE56EF1CF054EF1CF022
:1038A8005CEF1CF0076C081ED8B0082A010E0A6EDF
:1038B80006BE63EF1CF061EF1CF069EF1CF0056CAD
:1038C800061ED8B0062A010E0A1A000E0C6E000E4B
:1038D8000B6E07500810D8B474EF1CF076EF1CF08C
:1038E8009EEF1CF0010E096E7EEF1CF0D890073693
:1038F8000836092A08AE83EF1CF085EF1CF07AEF32
:103908001CF0D8900B360C360750055C085006584A
:10391800D8A091EF1CF093EF1CF098EF1CF0075023
:10392800055E0850065A0B80D89008320732092ED7
:1039380085EF1CF00A50D8B4A4EF1CF0A6EF1CF0D9
:10394800AAEF1CF00B6C0C1ED8B00C2A0BC005F0AB
:103958000CC006F012000D6E8A9E8A9C8A928A9488
:103968008A968A9A8A988B908B8A8B9C8B8E0B501E
:1039780046EC19F0070E0C6E3A0EE82EFED70C2E08
:10398800FCD700D08A9E8A9C8A928A948A968A9AC0
:103998008A988B908B9A8B8C8B9E0A50CFEC19F05F
:1039A800070E0C6E3A0EE82EFED70C2EFCD700D070
:1039B8008A9E8A9C8A928A948A968A9A8A988B90F6
:1039C8008B9A8B9C8B8E095046EC19F0070E0C6E67
:1039D8003A0EE82EFED70C2EFCD700D08A9E8A9C81
:1039E8008A928A948A968A9A8A988B908B9A8B9CC8
:1039F8008B9E0D50CFEC19F0070E0C6E3A0EE82E88
:103A0800FED70C2EFCD700D08A9E8A9C8A928A9474
:103A18008A968A9A8A988B9012000001C705D8A4C2
:103A280018EF1DF01AEF1DF043EF1DF0B72BC70E6E
:103A3800B76521EF1DF023EF1DF043EF1DF0000ED9
:103A4800B76FA851A911D8A42CEF1DF02EEF1DF0C7
:103A580032EF1DF0000EA96F010EA86FA807D8A0BD
:103A6800A907A851A911D8A43CEF1DF03EEF1DF0FD
:103A780043EF1DF08B94000EC36F000EC76FB82B79
:103A8800630EB8654AEF1DF04CEF1DF04EEF1DF0C8
:103A9800000EB86FBB51B85DD8A055EF1DF057EFB9
:103AA8001DF05EEF1DF0000EB96F8B92000EC46F13
:103AB80063EF1DF0010EB96F8B82010EC46F120007
:103AC800BEEC1EF00001D06FD051CF19D8B46FEF03
:103AD8001DF071EF1DF09BEF1DF0D0C0CFF0D005A9
:103AE800D8A479EF1DF07BEF1DF07FEF1DF0640E79
:103AF800CE6F9BEF1DF00B0EB66185EF1DF087EFC3
:103B08001DF08CEF1DF0B62B320ECE6F9BEF1DF023
:103B1800650EB66192EF1DF094EF1DF099EF1DF060
:103B2800B62B0A0ECE6F9BEF1DF0020ECE6F100E55
:103B3800D019D8A4A2EF1DF0A4EF1DF0A8EF1DF036
:103B4800000ECE6F000EB66F1200000E0B6E000E48
:103B58000A6E07500810D8B4B4EF1DF0B6EF1DF088
:103B6800DEEF1DF0010E096EBEEF1DF0D89007368E
:103B78000836092A08AEC3EF1DF0C5EF1DF0BAEFED
:103B88001DF0D8900A360B360750055C08500658C9
:103B9800D8A0D1EF1DF0D3EF1DF0D8EF1DF00750DE
:103BA800055E0850065A0A80D89008320732092E56
:103BB800C5EF1DF00AC005F00BC006F01200A20EFA
:103BC800F66E3F0EF76E000EF86E01EE54F010EE32
:103BD80004F00900F5CFEEFFE550E150FAE19E0E42
:103BE800F66E3F0EF76E000EF86E00EEF4F010EE73
:103BF80004F00900F5CFEEFFE550E150FAE101EEDF
:103C080000F0480EEE6AE806FDE100EE60F0740E82
:103C1800EE6AE806FDE15A6A596A586A576A566AAE
:103C2800556A5B905B92000EF86E000128EF00F079
:103C380007500810D8B423EF1EF025EF1EF049EF07
:103C48001EF0010E096E2DEF1EF0D89007360836CB
:103C5800092A08AE32EF1EF034EF1EF029EF1EF0ED
:103C68000750055C08500658D8A03DEF1EF03FEFFE
:103C78001EF043EF1EF00750055E0850065AD89014
:103C880008320732092E34EF1EF005C005F006C0D1
:103C980006F01200106E0CC005F00DC006F0000E04
:103CA800086E640E076E1CEC1EF005500E6E0CC0FC
:103CB80005F00DC006F0000E086E640E076EA9EC44
:103CC8001DF005500F6E10C005F0066A0EC007F013
:103CD8009CEC1EF0010E1024056E066A000E0622EA
:103CE8000FC007F09CEC1EF01200000E451A000EE3
:103CF800461A000E471A800E481A41C031F042C0D9
:103D080032F043C033F044C034F045C035F046C00B
:103D180036F047C037F048C038F0BFEC0FF031C07C
:103D280041F032C042F033C043F034C044F01200D6
:103D3800000EF2BE010E086E0650030BAA6E05C0F7
:103D4800A9FF07C0A8FFA69EA69CA684F29E550EB2
:103D5800A76EAA0EA76EA682A6B2B5EF1EF0B7EFA1
:103D68001EF0B0EF1EF0A69408B002D0F29E01D06B
:103D7800F28E120080B0C3EF1EF0C5EF1EF0C8EF40
:103D88001EF0010EDDEF1EF080BECDEF1EF0CFEF6E
:103D98001EF0D2EF1EF0030EDDEF1EF080BAD7EF53
:103DA8001EF0D9EF1EF0DCEF1EF0050EDDEF1EF061
:103DB800100E12009E90B4C001F0B5C002F045ECA0
:103DC8001FF00001B251B311D8B4EDEF1EF0EFEFC0
:103DD8001EF0FCEF1EF002D8FCEF1EF00500FA6E94
:103DE800B251FD6EB351FE6EF850FF6EFA501200DC
:103DF8001200096E09C007F007460746C2500718A7
:103E0800830B0718C26EC280C282C2B20EEF1FF0C7
:103E180010EF1FF009EF1FF0C450086E076AC35077
:103E28000724056E000E0820066E1200000E896E2B
:103E3800000E8A6E000E8B6E9268010E936E180E3D
:103E4800946EFC0E0F013A6F3E0E396F0E0E386FEE
:103E5800000E616EF18E1200000ECC6EEC0ECF6E6D
:103E6800780ECE6ECECFB4F0CFCFB5F09E909D80B9
:103E7800AE0E056E3F0E066ECAEC1FF0310ECD6E0B
:103E88001200CDA44AEF1FF04CEF1FF054EF1FF0C3
:103E9800CD900250CF6E01C0CEFFCD8058EF1FF0FD
:103EA8000250CF6E01C0CEFF1200D5EC1FF01AEC05
:103EB8001FF078EC1FF09DEC1FF0BCEC1FF06AECD3
:103EC8001FF030EC1FF092EC1FF01200000EB46EE1
:103ED800D80EB36EF00EB26EB2CFB0F0B3CFB1F071
:103EE800A192310EB16E1200600ED36E040ED26E26
:103EF800400E9B6ED2AE83EF1FF085EF1FF07EEF72
:103F08001FF012000650030BAA6E05C0A9FFA69C5D
:103F1800A69EA68000F000F0A8501200000ED76EF2
:103F2800E10ED66EE10E0001D16FF294D70ED56E78
:103F38001200010EC26E040EC16EBE0EC06E000EDF
:103F4800C36E000EC46E1200A1B2ADEF1FF0B0EF49
:103F58001FF0010EB1EF1FF0000E1200F2B4B7EF20
:103F68001FF0BAEF1FF0010EBBEF1FF0000E12009A
:103F7800000E0F01546F000E556F000E566F1200A1
:103F8800B182B2CF08F0B3CF07F0120005C0B2F08B
:103F980006C0B3F012006F12033A0000F041D65089
:083FA8001200D09E120012006D
:020000040020DA
:08000000FFFFFFFFFFFFFFFF00
:020000040030CA
:0E000000FF281E3CFFBF85FF00C00FE00F4031
:00000001FF
