:020000040000fa
:10000000f07f00204d22010087f00000cbf90000b6
:1000100000000000000000000000000000000000e0
:100020000000000000000000000000000fed0000d4
:1000300000000000000000000fed0000a5360100e8
:100040000fed00000fed00000fed00000522010094
:100050000fed00000fed00000fed00000fed0000b0
:100060000fed00000fed00000fed000075e2000045
:10007000f5e000000fed00000fed00004d03010062
:100080000fed00000fed00000fed00000fed000080
:10009000e92b01000fed00000fed0000192c01000d
:1000a000b92b01000fed00000fed00000fed000077
:0c00b0000fed00000fed00000fed000050
:020000040000fa
:1000bc00f8b5c046f8bc08bc9e467047e521010067
:1000cc00f8b5c046f8bc08bc9e467047bd2101007f
:020000040000fa
:0800dc000cf800000100000017
:020000040000fa
:1000e400f0b5d9b0099115001e001c000a9013f058
:1000f40019fd036818001d9313f0fbfe0a9b15906d
:10010400002b06d09b6b0b93002b02d10a9812f0a4
:100114002bf9099b0c229a5e80239b011a4209d178
:100124001343099a9381136e0b930b9aa64b1340b6
:10013400099a1366099b9b891b0719d5099b1b699f
:100144000b93002b14d01a22099b9b8913400a2b72
:1001540018d1099b0e229b5e002b13db33002a006f
:1001640009990a9811f00efa1690169859b0f0bd34
:1001740009990a980ff03afe0028e4d001235b4263
:100184001693f2e700232faf2c972e932d930b9504
:100194000e9319931a9320931f9312931b931e93f8
:1001a40016930b9d2b78002b02d0252b00d092e0c8
:1001b4000b9bee1a17d03b602e9b7e609b192e93ef
:1001c4002d9b08370c9301332d93072b08dd2caaa4
:1001d40009990a9811f00efa002800d0fae12faf1d
:1001e400169b9b1916932b78002b01d101f0c8f9ab
:1001f4001b2200231ea95218137001221e00524212
:1002040001350d9217930a226b1c14932b780f93cc
:100214000f9820385a2801d900f0bafd13f052fd86
:100224009f00b805b805a900b805b805b80584004d
:10023400b805b805ab00b400b805b200b900b805fc
:10024400e200e400e400e400e400e400e400e4008c
:10025400e400e400b805b805b805b805b805b80564
:10026400b8057601b8050e01210176017601760103
:10027400b805b805b805b805f500b805b80577049c
:10028400b805b805b805bd04b805e004b805b80557
:100294005d00b805b805b805b805b805b805b805d2
:1002a400b8057601b8050e012301760176017601c1
:1002b400f70023010a01b8050301b8054e047904c7
:1002c400ab040a01b805bd04a700e204b805b805eb
:1002d4001205b805a700013564e73c4b2133202102
:1002e4002093314001d100f0b1fc072307349c4333
:1002f4002300083310932368646806930794f30774
:100304000dd5069b079a134309d0302225ab1a70ea
:100314003c216a46521812785a7002231e432c4b11
:100324001e40022300f005fc0a9813f0fbfb43680f
:1003340018001e9313f0ddfd1b900a9813f0f2fbd6
:10034400836812931b9b002b11d0129b002b0ed0a1
:100354001b78002b0bd08023db001e4307e01b23fc
:100364001eaa9b181a78002a01d120221a70149d03
:1003740049e70123f1e7236804341793002bf6dae5
:100384005b4217930423e8e71b231ea92b225b1867
:10039400ece71499149b097801330f912a2908d0aa
:1003a40000210d910f9819003038092812d91491a1
:1003b4002ee72168221d0d91002902da012149420c
:1003c4000d9114001493d2e7ffdfffff882a010088
:1003d400fffbffff0d99514341180d91197801332b
:1003e4000f91dfe78023b8e700231793179b0f993a
:1003f40053433039cb181793149b591c1b78149111
:100404000f93303b092bf1d9d1e70823a5e7149bbf
:100414001b78682b05d1149b0133149380239b0014
:100424009be7402399e7149b1b786c2b04d1149b06
:1004340001331493202390e710238ee7231d2268b1
:1004440010933fab1a701b2200201ea95218107083
:1004540001220c900d9205001190139004000b934f
:100464004be210231e43b3063bd5072307349c43ba
:100474002300083310932368646806930794079a4b
:100484000123002a0cda0699079a00244b4294416e
:10049400069307941b232d221ea95b181a700123af
:1004a4000799069a0a430d99013101d101f098f890
:1004b400802134008c43002a01d001f096f80d9a73
:1004c400002a01d100f055fc012b00d1e5e3022bf9
:1004d40001d100f02ffc002200230692079301f0c3
:1004e4008cf8221df30605d5236810920693db17ba
:1004f4000793c4e7730603d510920022a35ef5e7c1
:1005040023681092b105f1d55bb2efe707230734f6
:100514009c43230001220833109323685242199309
:100524006368199d1a931a9b28005c0064089b4b0e
:10053400210012f0dbfa002801d001f02ef801228c
:10054400964b52422800210010f038fd002801d0bb
:1005540001f023f80022002319981a9910f024fdc1
:10056400002804d01b232d221ea95b181a708c4b63
:100574001a1d0b920f9a472a00dc0b9380239e438b
:1005840000230c9303230d9300252b0001f05cf84a
:1005940020230f9c9c43412c22d130220f9925ab60
:1005a4001a705822612900d178225a7002231e43fe
:1005b4000d9b632b00dc9fe0591c0a9809f014fe84
:1005c4000b90002800d09ce0099b9a894023134398
:1005d400099a9381099b9b895b0600d4c5e5cde507
:1005e4000d9b0c90013300d18ee0472c03d10d9b61
:1005f400002b00d18be080235b00334321931a9bb3
:10060400002b00db87e0802212069446199b0e9390
:100614001a9b634411932d232293412c00d0b3e001
:1006240026aa0e98119911f0edf9ff2300229b05db
:1006340009f0c4f90022002304000d0010f0aefc00
:10064400002801d001232693554b1a002132119220
:100654000f9a612a01d1103311930d9b013b13931f
:100664000b9b1c9300224f4b2000290009f0a6f994
:100674000d00040011f098f8189010f011ff02001a
:100684000b002000290006f0f9fa1c9b189a01338c
:100694000e93119b04009b5c1c9a0d001370139b1a
:1006a400239301330ad0139b0022013b13930e9b27
:1006b4001c93002310f072fc0028d3d000223a4b84
:1006c4002000290010f084fc002829d10022364b98
:1006d4002000290010f062fc002802d0189bdb07e0
:1006e4001ed430200e9b23990e9cc91a1a00cc42aa
:1006f40029d418700133f6e700230c933fab0b9316
:1007040079e70b9b0c9376e706230d9373e70d9b18
:100714000c930123f9e7199a11930e9200237be7b6
:1007240030200e9b2a93119bda7b2a9b013b2a9350
:100734001978914226d04a1cd2b2392901d1119a92
:10074400927a1a700e9a0b9bd31a0e930f9b462b18
:1007540005d0652b73dd0f9b662b00d06be1269bc8
:10076400002b00dc5de10d9a002a04d166220f9271
:10077400f20700d472e1159a9b180d9a9b18662211
:100784000f926be11870d0e7462c0fd00d9d452ccd
:1007940001d10d9b5d1c02230ae0c046ffffef7fe1
:1007a400882a0100000030400000e03f03230d9d33
:1007b4002aaa049227aa039226aa029200930195d8
:1007c4000e9a119b0a9805f089f80b90472c01d1d9
:1007d400f30724d50b9b5b191393462c13d10b9b66
:1007e4001b78302b0ad1002200230e98119910f0a7
:1007f400d5fb002802d101235d1b2695269a139b65
:10080400944663441393002200230e98119910f028
:10081400c5fb3022002800d1e8e0139b2a932a9bd1
:100824000b9a9b1a0e93472c90d1269bda1c03db60
:100834000d9a9a4200dbfee00f9b023b0f932023ac
:1008440026980f9a441e26949a43412a01d000f018
:10085400bafe01210f9b0f33dbb228aa13702b239e
:10086400002c02da01242d23241a5370092c00dcf5
:10087400c8e037251eabed186b1e20000a210d932e
:100884000ff00efc6b1e3031197020000a210ff09e
:10089400bdfb0400092800ddade02a2337211eaa90
:1008a400023d30342c709b1889181a008d4200d2f6
:1008b400a3e028abd31a1f931f9a0e9b944663445c
:1008c4000d930e9b012b01dcf30704d5159a0d9ba8
:1008d400944663440d93cb4b80221e4000231c009e
:1008e40052001643119313930025229bab4204d06c
:1008f4001b232d221ea95b181a700d9b18959d426f
:1009040000da18931b231eaa9b181b785a1e9341c6
:10091400189ad318189302233340219302d0189bba
:100924000233189384233340229306d1179b189ad9
:100934009b1a1c93002b00dd57e21b231eaa9b1855
:100944001a78002a16d03b6001237b602e9b08375f
:1009540001332e932d9b1c9301332d93072b09dd1b
:100964002caa09990a9810f045fe002801d000f03d
:10097400e1fd2faf219b002b17d025ab3b60022359
:100984007b602e9b083702332e932d9b1c930133df
:100994002d93072b09dd2caa09990a9810f02afe39
:1009a400002801d000f0c6fd2faf229b802b06d17a
:1009b400179b189a9b1a1c93002b00dd4ce20d9b8d
:1009c400ed1a002d00dd7ce2f30500d59ae20b9bc5
:1009d4003b600d9b7b602e9b0b930b9a0d9b944667
:1009e40063442e9313e3591c2a911a702a9b13997a
:1009f4009942f8d813e70d9d3ee72a7801351a701d
:100a0400013352e72a231eaa9b18002905d130225c
:100a140028ab9a702b231eaa9b1830345a1c1c70c6
:100a240047e70d9b002b03d101231e4200d1a6e60c
:100a3400159b0133a1e6269a0e9b9a4205dbf30728
:100a440021d5159bd31867229ae615990e9b5b183e
:100a540067210f91002a01dc9b1a0133269a710544
:100a640025d5141e23dd002211921392129a1278b6
:100a7400ff2a0ad11199139a219e52181b994a43ad
:100a8400d3180d9330e71300dde79442f2dda41a86
:100a9400129a5278002a06d0139a01321392129aab
:100aa40001321292e2e7119a01321192dee70d93bc
:100ab40000231400219e1193139315e7231db206fe
:100ac4000ad5169a109323681a60d2175a60149b99
:100ad400109c0b93fff765fbf20604d51093236873
:100ae400169a1a60f3e7720607d56a465821521817
:100af4001093128823681a80e9e7b205eed56a4696
:100b0400582152181093127823681a70dfe71023c3
:100b14001e432021314012d0072307349c43230075
:100b2400083310932368646806930794354b1e407a
:100b340000231b2200211ea812181170b0e41023f8
:100b4400221d334004d02368109206930791ede7e9
:100b54004021314005d01092226892b20692079348
:100b6400e4e780239b003340109202d02368dbb279
:100b7400ebe72268f2e7231d30221093236825a9ae
:100b8400069300230a707822079302234a701e49b1
:100b94001e43103120910f92cbe7231d109323683d
:100ba40000240b931b231eaa9b181c700d9b01335e
:100bb40010d00d9a21000b9812f0edff0c90a0427a
:100bc40000d1f7e00b9a0c94831a0d93250011942d
:100bd400139492e60b9813f08cf90c940d90d3e4d3
:100be40010231e432021314010d0072307349c4397
:100bf4002300083310932368646806930794012341
:100c040097e7c046fffbffff882a01001023221d3f
:100c1400334004d02368109206930791efe74021f4
:100c2400314005d01092226892b206920793e6e70b
:100c340080239b003340109202d02368dbb2ebe7a1
:100c44002268f2e7ac4b1033fff749fb1023221d57
:100c5400334005d02368109206930791fff74ffbaa
:100c64004021314006d01092226892b20692079336
:100c7400fff745fb80239b003340109202d023688a
:100c8400dbb2e9e72268f1e70b9b00f0b8fc079bb5
:100c9400002b0bd1069b092b08d8e7231eaa9b180f
:100ca400069a30321a700b9300f0c6fc802500239c
:100cb400ed000e93254058ab013b0b930a22069896
:100cc4000799002311f048fd0b9b30321a700e9bdc
:100cd40001330e93002d1dd0129b0e9a1b789a425d
:100ce40018d1ff2a16d0079b002b02d1069b092b93
:100cf40010d90b9b1b9a1e999b1a18000b9312f088
:100d040054fb0022129b0e925b785a1e9341129a56
:100d1400d31812930a2206980799002311f01cfd98
:100d240006900791069b079a134301d100f084fcb7
:100d34000b9bc1e700220023069207930f2058abb8
:100d44000b930b9b209a013b0b93069b0340d35cb4
:100d54000b9a1370079b1907069b1a09079b1143eb
:100d64001b0907930b00079a06911343e9d100f07e
:100d740063fc58aa0b92002b01d000f05dfcf30732
:100d840001d400f059fce7231eaa9b18302289e7fe
:100d94000f9b002b00d1f3e33c216a4652181278d2
:100da4003fab1a701b2200201ea952181070109419
:100db400fff74efb0c9dfff7e8fb10237b602e9b97
:100dc400083710332e932d9b239301332d93072b38
:100dd40008dd2caa09990a9810f00cfc002800d010
:100de400a8e32faf1c9b103b1c93444b1c9a3b6005
:100df400102ae2dc2e9b7a6023931300239a08378f
:100e0400944663442e932d9b1c9301332d93072bff
:100e140000dc92e52caa09990a9810f0ebfb002853
:100e240000d087e32faf88e510237b602e9b083723
:100e340010332e932d9b219301332d93072b08dd23
:100e44002caa09990a9810f0d5fb002800d071e368
:100e54002faf1c9b103b1c93294b1c9a3b60102a00
:100e6400e2dc2e9b7a6021931300219a0837944682
:100e740063442e932d9b1c9301332d93072b00dc8d
:100e84009de52caa09990a9810f0b4fb002800d01b
:100e940050e32faf93e510237b602e9b083710336c
:100ea4002e932d9b1c9301332d93072b08dd2caa25
:100eb40009990a9810f09efb002800d03ae32faf5e
:100ec400103d0f4b3b60102de5dc2e9b7d605d19c2
:100ed4002d9b2e951c9301332d930837072b00dc93
:100ee40072e52caa09990a9810f084fb002800d016
:100ef40020e32faf68e5c046882a0100a83e010020
:100f0400b83e01000f9b652b00dc67e20022002342
:100f140019981a9910f042f8002800d187e0c94bbb
:100f240032333b6001237b602e9b083701332e93c1
:100f34002d9b0b9301332d93072b08dd2caa0999c4
:100f44000a9810f057fb002800d0f3e22faf269b3d
:100f54000e9a934201dbf3071cd5159a1d9b944608
:100f64003b60159b7b602e9b083763442e932d9b1f
:100f74000b9301332d93072b08dd2caa09990a98aa
:100f840010f038fb002800d0d4e22faf0e9b5c1e7b
:100f9400002c34dc730700d5afe2179b189a9342f8
:100fa40000da1300169ad31816932e9b0b93002b7a
:100fb40007d02caa09990a9810f01cfb002800d02d
:100fc400b8e200232d930c9b002b00d0d3e22faf6b
:100fd4007de510237b602e9b083710332e932d9bc9
:100fe4000b9301332d93072b08dd2caa09990a983a
:100ff40010f000fb002800d09ce22faf103c924b75
:101004003b60102ce5dc2e9b7c601c192e942d9be0
:101014000b9301332d93072b70dd2caa09990a98a1
:1010240010f0e8fa002800d084e22fafb2e7269b44
:10103400002b7ddc834b32333b6001237b602e9b92
:10104400083701332e932d9b0d9301332d93072bda
:1010540008dd2caa09990a9810f0ccfa002800d0cf
:1010640068e22faf269b002b04d10e9b002b01d1ed
:10107400f3078fd5159a1d9b94463b60159b7b60a7
:101084002e9b083763442e932d9b0d9301332d9390
:10109400072b08dd2caa09990a9810f0abfa00284e
:1010a40000d047e22faf269c002c18da6442664a2f
:1010b4003a60102c24dc2e9b7c601c192d9b2e94f2
:1010c4005a1c08370d932d92072a08dd2caa09997a
:1010d4000a9810f08ffa002800d02be22faf0e9957
:1010e4000b9b8c463b600e9b7b602e9b63442e9334
:1010f4002d9b5a1c0b932d92072a8edc083749e747
:1011040010222e9b7a601a002d9b10322e925a1cac
:101114000d932d920837072a08dd2caa09990a98fd
:1011240010f068fa002800d004e22faf103cbee7ac
:101134000e9b25009c4200dd1d00002d15dd0b9b40
:101144007d603b602e9b08375b192e932d9b0d937e
:1011540001332d93072b08dd2caa09990a9810f066
:1011640049fa002800d0e5e12fafeb43db171d401f
:10117400651b002d00dd7fe00b9b1c1973050dd54d
:10118400139b002b00d091e0119b002b00d090e02a
:101194000b9b0e9a9b189c4200d91c00269b0e9a0e
:1011a400934201dbf30718d5159a1d9b94463b60c7
:1011b400159b7b602e9b083763442e932d9b0d93c8
:1011c40001332d93072b08dd2caa09990a9810f0f6
:1011d40011fa002800d0ade12faf0e9a0b9b944674
:1011e400269963441b1b551a9d4200dd1d00002dea
:1011f40014dd2e9b3c605b192e932d9b7d600b931d
:1012040001332d930837072b08dd2caa09990a9876
:1012140010f0f0f9002800d08ce12fafeb43db177e
:101224001d40269a0e9b9b1a5d1b002d00dcb1e627
:10123400054b3b60102d00ddb9e02e9b7d605d19f0
:101244002e95e4e6882a0100b83e010010237b6055
:101254002e9b083710332e932d9b0d9301332d9322
:10126400072b08dd2caa09990a9810f0c3f9002865
:1012740000d05fe12faf103dd64b3b60102de5dc75
:101284002e9b7d605d192d9b2e950d9301332d931f
:101294000837072b00dc6fe72caa09990a9810f08d
:1012a400a9f9002800d045e12faf65e7119b002b79
:1012b40047d0119b013b11931b9a1e9b94463b60a4
:1012c4001b9b7b602e9b083763442e932d9b0d93b1
:1012d40001332d93072b08dd2caa09990a9810f0e5
:1012e40089f9002800d025e12faf0e9a0b9b9b189b
:1012f400129a1b1b15789d4200dd1d00002d14dd84
:101304002e9b3c605b192e932d9b7d600d930133c6
:101314002d930837072b08dd2caa09990a9810f099
:1013240069f9002800d005e12fafeb43db171d401e
:10133400129b1b785d1b002d20dc129b1b78e4188c
:101344001ee7129b013b1293139b013b1393b3e7dc
:1013540010237b602e9b083710332e932d9b0d9307
:1013640001332d93072b08dd2caa09990a9810f054
:1013740041f9002800d0dde02faf103d954b3b60d4
:10138400102de5dc2e9b7d605d192d9b2e950d9314
:1013940001332d930837072bcfdd2caa09990a981e
:1013a40010f028f9002800d0c4e02fafc5e71023bf
:1013b4007b602e9b083710332e932d9b0b930133a8
:1013c4002d93072b08dd2caa09990a9810f012f91d
:1013d400002800d0aee02faf103d29e70e9b012b73
:1013e40003dc01231e4200d180e00b9b3b60012300
:1013f4007b602e9b083701332e932d9b0d93013375
:101404002d93072b08dd2caa09990a9810f0f2f8fd
:10141400002800d08ee02faf159a1d9b94463b60a8
:10142400159b7b602e9b083763442e932d9b0d9355
:1014340001332d93072b07dd2caa09990a9810f084
:10144400d9f8002876d12faf0023002219981a99d1
:101454000ff0a4fd0e9b5d1e00281fd10b9b0e9a5e
:1014640001333b602e9b7d60013b9b182e932d9b8b
:1014740008370b9301332d93072b07dd2caa099909
:101484000a9810f0b7f8002854d12faf28ab3b606e
:101494001f9b1f9a7b602e9bfff7a1fa002df5dda1
:1014a4004c4b3b60102d0bdc2e9b7d605d192e9503
:1014b4002d9b0b9301332d93072bdfdc0837e5e7d6
:1014c40010237b602e9b083710332e932d9b0b9398
:1014d40001332d93072b07dd2caa09990a9810f0e4
:1014e40089f8002826d12faf103dd9e77b602e9bc9
:1014f4000b9a01333a602e93dae7179b189a9c1ad9
:10150400002c00dc49e5344b3b60102c1ddc2e9b89
:101514007c601c192d9b2e940b9301332d93072b68
:1015240000dc3ae52caa09990a9810f063f800281f
:1015340000d132e50c9b002b01d1fff74bf81900c9
:101544000a980df00ff8fff745f810237b602e9be7
:10155400083710332e932d9b0b9301332d93072bb8
:1015640007dd2caa09990a9810f044f80028e1d163
:101574002faf103cc7e70c990a980cf0f3ff26e54f
:101584002e9b0693002b01d1fff724f82caa09996e
:101594000a9810f02ff8fff71df8199a1a9b19985a
:1015a4001a9911f0a3fa002801d1fef7f1ff0b4bb1
:1015b4001a000c320b920f9a472a01ddfef7deff68
:1015c4000833fef7daff6b463c229b181b78002198
:1015d400fff743f9b83e0100a83e0100882a010044
:1015e4003400002a01d1fef76fff012b01d1fff770
:1015f4004efb022b01d1fff7a1fb072658ab5a1e65
:101604000b92069a591e324030320a7007994d07e0
:101614000699c80807990543c9080791290007983e
:101624000695014301d0fff72ffbe10704d5023be8
:10163400302a01d0fff7aafb0b9a58ab9b1a0d9dd9
:101644000d93002326000c93119313931c00fff7b2
:0416540054f9c0463f
:020000040000fa
:10165800f0b5d9b00b9115001c000a9012f060fa91
:10166800036818001d9312f042fc0b9b15909b8990
:101678001b0618d50b9b1b690993002b13d140211e
:101688000a9808f0affd0b9b18601861002807d175
:101698000c230a9a13600d3b1693169859b0f0bda7
:1016a80040230b9a536100232faf2c972e932d9331
:1016b80009950e9319931a9320931f9312931b93d2
:1016c8001e931693099d2b78002b02d0252b00d052
:1016d80092e0099bee1a17d03b602e9b7e609b1907
:1016e8002e932d9b08370c9301332d93072b08dd80
:1016f8002caa0b990a980df0ffff002800d0f5e1fd
:101708002faf169b9b1916932b78002b01d101f054
:10171800c9f91b2200231ea95218137001221e00aa
:10172800524201350d9217930a226b1c14932b78a1
:101738000f930f9820385a2801d900f0bbfd12f0fa
:10174800bffa9f00b905b905a900b905b905b905da
:101758008400b905b905ab00b400b905b200b900f9
:10176800b905dc00de00de00de00de00de00de00a3
:10177800de00de00de00b905b905b905b905b90511
:10178800b905b9057101b90508011b01710171019c
:101798007101b905b905b905b905ef00b905b9056c
:1017a8007804b905b905b905be04b905e104b90558
:1017b800b9055d00b905b905b905b905b905b90592
:1017c800b905b9057101b90508011d01710171015a
:1017d8007101f1001d010401b905fd00b9054f04af
:1017e8007a04ac040401b905be04a700e304b905f2
:1017f800b9051305b905a700013564e7bf4b2133c7
:1018080020212093314001d100f0b2fc0723073496
:101818009c43230008331093236864680693079455
:10182800f3070dd5069b079a134309d0302225ab41
:101838001a703c216a46521812785a7002231e43c5
:10184800af4b1e40022300f006fc0a9812f068f91c
:10185800436818001e9312f04afb1b900a9812f076
:101868005ff9836812931b9b002b11d0129b002bee
:101878000ed01b78002b0bd08023db001e4307e023
:101888001b231eaa9b181a78002a01d120221a703d
:10189800149d49e70123f1e7236804341793002bcb
:1018a800f6da5b4217930423e8e71b231ea92b22d1
:1018b8005b18ece71499149b097801330f912a29d6
:1018c80008d000210d910f981900303809280cd93b
:1018d80014912ee72168221d0d91002902da0121b9
:1018e80049420d9114001493d2e70d9951434118c0
:1018f8000d91197801330f91e5e78023bee70023a6
:101908001793179b0f9953433039cb181793149b90
:10191800591c1b7814910f93303b092bf1d9d7e749
:101928000823abe7149b1b78682b05d1149b013364
:10193800149380239b00a1e740239fe7149b1b7807
:101948006c2b04d1149b01331493202396e71023a6
:1019580094e7231d226810933fab1a701b220020c6
:101968001ea95218107001220c900d9205001190ba
:1019780013900400099352e210231e43b3063cd58a
:10198800072307349c4323000833109323686468b3
:1019980006930794079a0123002a0cda0699079af6
:1019a80000244b429441069307941b232d221ea921
:1019b8005b181a7001230799069a0a430d99013199
:1019c80001d101f09ff8802134008c43002a01d016
:1019d80001f09df80d9a002a01d100f05cfc012b62
:1019e80001d100f0ecfb022b01d100f035fc002204
:1019f80000230692079301f092f8221df30605d5fd
:101a0800236810920693db170793c3e7730603d581
:101a180010920022a35ef5e723681092b105f1d574
:101a28005bb2efe7072307349c4323000122083306
:101a380010932368524219936368199d1a931a9b4d
:101a480028005c0064082f4b210011f04df8002895
:101a580001d001f034f801222a4b5242280021001b
:101a68000ff0aafa002801d001f029f8002200237b
:101a780019981a990ff096fa002804d01b232d22e2
:101a88001ea95b181a701d4b1a1d09920f9a472a36
:101a980000dc099380239e4300230c9303230d93ba
:101aa80000252b0001f062f820230f9c9c43412c59
:101ab8002ad130220f9925ab1a705822612900d1fa
:101ac80078225a7002231e430d9b632b00dca7e08b
:101ad800591c0a9808f086fb0990002800d0a4e059
:101ae8000b9b9a89402313430b9a93810b9b9b89e9
:101af8005b0600d4d1e501235b42cde5542a010001
:101b0800fffbffffffffef7f0d9b0c90013300d120
:101b18008ee0472c03d10d9b002b00d18be0802356
:101b28005b00334321931a9b002b00db87e0802264
:101b380012069446199b0e931a9b634411932d2306
:101b48002293412c00d0b3e026aa0e9811990ff0e9
:101b580057ffff2300229b0507f02eff00220023da
:101b680004000d000ff018fa002801d00123269375
:101b7800544b1a00213211920f9a612a01d1103365
:101b880011930d9b013b1393099b1c9300224e4b11
:101b98002000290007f010ff0d0004000ff002fede
:101ba80018900ff07bfc02000b002000290005f0c4
:101bb80063f81c9b189a01330e93119b04009b5cdd
:101bc8001c9a0d001370139b239301330ad0139ba7
:101bd8000022013b13930e9b1c9300230ff0dcf9aa
:101be8000028d3d00022394b200029000ff0eef94d
:101bf800002829d10022354b200029000ff0ccf90c
:101c0800002802d0189bdb071ed430200e9b239996
:101c18000e9cc91a1a00cc4229d418700133f6e771
:101c280000230c933fab099379e7099b0c9376e764
:101c380006230d9373e70d9b0c930123f9e7199a7b
:101c480011930e9200237be730200e9b2a93119b61
:101c5800da7b2a9b013b2a931978914226d04a1ca9
:101c6800d2b2392901d1119a927a1a700e9a099b27
:101c7800d31a0e930f9b462b05d0652b71dd0f9b56
:101c8800662b00d069e1269b002b00dc5be10d9af6
:101c9800002a04d166220f92f20700d470e1159a47
:101ca8009b180d9a9b1866220f9269e11870d0e76d
:101cb800462c0dd00d9d452c01d10d9b5d1c02239a
:101cc80008e0c046542a0100000030400000e03f10
:101cd80003230d9d2aaa049227aa039226aa0292f8
:101ce800009301950e9a119b0a9803f0f5fd09904f
:101cf800472c01d1f30724d5099b5b191393462c74
:101d080013d1099b1b78302b0ad1002200230e988f
:101d180011990ff041f9002802d101235d1b269586
:101d2800269a139b944663441393002200230e982b
:101d380011990ff031f93022002800d1e8e0139b07
:101d48002a932a9b099a9b1a0e93472c92d1269b79
:101d5800da1c03db0d9a9a4200dbfee00f9b023b84
:101d68000f93202326980f9a441e26949a43412abb
:101d780001d000f0bafe01210f9b0f33dbb228aa75
:101d880013702b23002c02da01242d23241a5370fc
:101d9800092c00dcc8e037251eabed186b1e2000af
:101da8000a210d930ef07af96b1e3031197020005c
:101db8000a210ef029f90400092800ddade02a23e4
:101dc80037211eaa023d30342c709b1889181a003e
:101dd8008d4200d2a3e028abd31a1f931f9a0e9b03
:101de800944663440d930e9b012b01dcf30704d545
:101df800159a0d9b944663440d93cb4b80221e404d
:101e080000231c0052001643119313930025229bb4
:101e1800ab4204d01b232d221ea95b181a700d9b00
:101e280018959d4200da18931b231eaa9b181b784d
:101e38005a1e9341189ad3181893022333402193ba
:101e480002d0189b0233189384233340229306d17f
:101e5800179b189a9b1a1c93002b00dd57e21b2333
:101e68001eaa9b181a78002a16d03b6001237b60b3
:101e78002e9b083701332e932d9b1c9301332d93f2
:101e8800072b09dd2caa0b990a980df035fc0028c0
:101e980001d000f0e1fd2faf219b002b17d025ab1f
:101ea8003b6002237b602e9b083702332e932d9bc9
:101eb8001c9301332d93072b09dd2caa0b990a9843
:101ec8000df01afc002801d000f0c6fd2faf229bb0
:101ed800802b06d1179b189a9b1a1c93002b00dda8
:101ee8004ce20d9bed1a002d00dd7ce2f30500d5d8
:101ef8009ae2099b3b600d9b7b602e9b0993099a94
:101f08000d9b944663442e9313e3591c2a911a702f
:101f18002a9b13999942f8d813e70d9d3ee72a7832
:101f280001351a70013352e72a231eaa9b1800298b
:101f380005d1302228ab9a702b231eaa9b18303467
:101f48005a1c1c7047e70d9b002b03d101231e422e
:101f580000d1a8e6159b0133a3e6269a0e9b9a4268
:101f680005dbf30721d5159bd31867229ce6159945
:101f78000e9b5b1867210f91002a01dc9b1a013325
:101f8800269a710525d5141e23dd0022119213927d
:101f9800129a1278ff2a0ad11199139a219e52187f
:101fa8001b994a43d3180d9330e71300dde7944299
:101fb800f2dda41a129a5278002a06d0139a013236
:101fc8001392129a01321292e2e7119a0132119297
:101fd800dee70d9300231400219e1193139315e758
:101fe800231db2060ad5169a109323681a60d217d1
:101ff8005a60149b109c0993fff764fbf20604d502
:1020080010932368169a1a60f3e7720607d56a4692
:10201800582152181093128823681a80e9e7b205ec
:10202800eed56a46582152181093127823681a7010
:10203800dfe710231e432021314012d00723073445
:102048009c4323000833109323686468069307941d
:10205800354b1e4000231b2200211ea812181170a8
:10206800a9e41023221d334004d02368109206935c
:102078000791ede74021314005d01092226892b2d5
:1020880006920793e4e780239b003340109202d026
:102098002368dbb2ebe72268f2e7231d30221093b6
:1020a800236825a9069300230a7078220793022340
:1020b8004a701e491e43103120910f92cbe7231d11
:1020c80010932368002409931b231eaa9b181c70d5
:1020d8000d9b013310d00d9a2100099811f059fd7c
:1020e8000c90a04200d1f7e0099a0c94831a0d9342
:1020f80025001194139492e6099811f0f8fe0c94b7
:102108000d90cde410231e432021314010d0072329
:1021180007349c43230008331093236864680693ac
:102128000794012397e7c046fffbffff542a0100ed
:102138001023221d334004d0236810920693079180
:10214800efe74021314005d01092226892b2069202
:102158000793e6e780239b003340109202d0236860
:10216800dbb2ebe72268f2e7ac4b1033fff748fb32
:102178001023221d334005d023681092069307913f
:10218800fff74efb4021314006d01092226892b2f0
:1021980006920793fff744fb80239b00334010927d
:1021a80002d02368dbb2e9e72268f1e7099b00f077
:1021b800b8fc079b002b0bd1069b092b08d8e723fb
:1021c8001eaa9b18069a30321a70099300f0c6fcb2
:1021d80080250023ed000e93254058ab013b099361
:1021e8000a2206980799002310f0b4fa099b3032a6
:1021f8001a700e9b01330e93002d1dd0129b0e9a60
:102208001b789a4218d1ff2a16d0079b002b02d1bf
:10221800069b092b10d9099b1b9a1e999b1a18001b
:10222800099311f0c0f80022129b0e925b785a1e97
:102238009341129ad31812930a22069807990023f9
:1022480010f088fa06900791069b079a134301d16c
:1022580000f084fc099bc1e7002200230692079343
:102268000f2058ab0993099b209a013b0993069bc1
:102278000340d35c099a1370079b1907069b1a0938
:10228800079b11431b0907930b00079a06911343f9
:10229800e9d100f063fc58aa0992002b01d000f0a4
:1022a8005dfcf30701d400f059fce7231eaa9b1834
:1022b800302289e70f9b002b00d1f3e33c216a46cb
:1022c800521812783fab1a701b2200201ea9521810
:1022d80010701094fff747fb0c9dfff7e2fb1023eb
:1022e8007b602e9b083710332e932d9b239301334d
:1022f8002d93072b08dd2caa0b990a980df0fcf9f1
:10230800002800d0a8e32faf1c9b103b1c93444b24
:102318001c9a3b60102ae2dc2e9b7a602393130000
:10232800239a0837944663442e932d9b1c930133bc
:102338002d93072b00dc92e52caa0b990a980df037
:10234800dbf9002800d087e32faf88e510237b60f6
:102358002e9b083710332e932d9b219301332d93f9
:10236800072b08dd2caa0b990a980df0c5f900284f
:1023780000d071e32faf1c9b103b1c93294b1c9a78
:102388003b60102ae2dc2e9b7a6021931300219a8d
:102398000837944663442e932d9b1c9301332d9349
:1023a800072b00dc9de52caa0b990a980df0a4f9df
:1023b800002800d050e32faf93e510237b602e9bbd
:1023c800083710332e932d9b1c9301332d93072b25
:1023d80008dd2caa0b990a980df08ef9002800d078
:1023e8003ae32faf103d0f4b3b60102de5dc2e9be1
:1023f8007d605d192d9b2e951c9301332d93083715
:10240800072b00dc72e52caa0b990a980df074f9d9
:10241800002800d020e32faf68e5c046542a010009
:10242800883e0100983e01000f9b652b00dc67e2a7
:102438000022002319981a990ef0aefd002800d149
:1024480087e0c94b32333b6001237b602e9b083702
:1024580001332e932d9b099301332d93072b08dd10
:102468002caa0b990a980df047f9002800d0f3e23e
:102478002faf269b0e9a934201dbf3071cd5159ac2
:102488001d9b94463b60159b7b602e9b08376344dd
:102498002e932d9b099301332d93072b08dd2caa2e
:1024a8000b990a980df028f9002800d0d4e22faf34
:1024b8000e9b5c1e002c34dc730700d5afe2179b23
:1024c800189a934200da1300169ad31816932e9b83
:1024d8000993002b07d02caa0b990a980df00cf938
:1024e800002800d0b8e200232d930c9b002b00d0cd
:1024f800d3e22faf7de510237b602e9b0837103386
:102508002e932d9b099301332d93072b08dd2caabd
:102518000b990a980df0f0f8002800d09ce22faf34
:10252800103c924b3b60102ce5dc2e9b7c601c1908
:102538002e942d9b099301332d93072b70dd2caa24
:102548000b990a980df0d8f8002800d084e22faf34
:10255800b2e7269b002b7ddc834b32333b600123a3
:102568007b602e9b083701332e932d9b0d930133ef
:102578002d93072b08dd2caa0b990a980df0bcf8af
:10258800002800d068e22faf269b002b04d10e9bb9
:10259800002b01d1f3078fd5159a1d9b94463b60fc
:1025a800159b7b602e9b083763442e932d9b0d93c0
:1025b80001332d93072b08dd2caa0b990a980df0ef
:1025c8009bf8002800d047e22faf269c002c18da91
:1025d8006442664a3a60102c24dc2e9b7c601c19ed
:1025e8002d9b2e945a1c08370d932d92072a08dd2f
:1025f8002caa0b990a980df07ff8002800d02be23e
:102608002faf0e99099b8c463b600e9b7b602e9bdf
:1026180063442e932d9b5a1c09932d92072a8edc16
:10262800083749e710222e9b7a601a002d9b10323a
:102638002e925a1c0d932d920837072a08dd2caad2
:102648000b990a980df058f8002800d004e22faf33
:10265800103cbee70e9b25009c4200dd1d00002dae
:1026680015dd099b7d603b602e9b08375b192e9317
:102678002d9b0d9301332d93072b08dd2caa0b9965
:102688000a980df039f8002800d0e5e12fafeb43a8
:10269800db171d40651b002d00dd7fe0099b1c1921
:1026a80073050dd5139b002b00d091e0119b002bd7
:1026b80000d090e0099b0e9a9b189c4200d91c0000
:1026c800269b0e9a934201dbf30718d5159a1d9b9a
:1026d80094463b60159b7b602e9b083763442e9382
:1026e8002d9b0d9301332d93072b08dd2caa0b99f5
:1026f8000a980df001f8002800d0ade12faf0e9a2e
:10270800099b9446269963441b1b551a9d4200dd7c
:102718001d00002d14dd2e9b3c605b192e932d9b14
:102728007d60099301332d930837072b08dd2caa08
:102738000b990a980cf0e0ff002800d08ce12faf2d
:10274800eb43db171d40269a0e9b9b1a5d1b002d41
:1027580000dcb1e6054b3b60102d00ddb9e02e9b97
:102768007d605d192e95e4e6542a0100983e01002b
:1027780010237b602e9b083710332e932d9b0d93cf
:1027880001332d93072b08dd2caa0b990a980cf01e
:10279800b3ff002800d05fe12faf103dd64b3b6060
:1027a800102de5dc2e9b7d605d192d9b2e950d93dc
:1027b80001332d930837072b00dc6fe72caa0b9900
:1027c8000a980cf099ff002800d045e12faf65e783
:1027d800119b002b47d0119b013b11931b9a1e9b09
:1027e80094463b601b9b7b602e9b083763442e936b
:1027f8002d9b0d9301332d93072b08dd2caa0b99e4
:102808000a980cf079ff002800d025e12faf0e9a26
:10281800099b9b18129a1b1b15789d4200dd1d0011
:10282800002d14dd2e9b3c605b192e932d9b7d6043
:102838000d9301332d930837072b08dd2caa0b992c
:102848000a980cf059ff002800d005e12fafeb43a0
:10285800db171d40129b1b785d1b002d20dc129b93
:102868001b78e4181ee7129b013b1293139b013b54
:102878001393b3e710237b602e9b083710332e93f6
:102888002d9b0d9301332d93072b08dd2caa0b9953
:102898000a980cf031ff002800d0dde02faf103d82
:1028a800954b3b60102de5dc2e9b7d605d192d9bc3
:1028b8002e950d9301332d930837072bcfdd2caac6
:1028c8000b990a980cf018ff002800d0c4e02faf2d
:1028d800c5e710237b602e9b083710332e932d9b62
:1028e800099301332d93072b08dd2caa0b990a981d
:1028f8000cf002ff002800d0aee02faf103d29e712
:102908000e9b012b03dc01231e4200d180e0099bb2
:102918003b6001237b602e9b083701332e932d9b50
:102928000d9301332d93072b08dd2caa0b990a98d8
:102938000cf0e2fe002800d08ee02faf159a1d9b08
:1029480094463b60159b7b602e9b083763442e930f
:102958002d9b0d9301332d93072b07dd2caa0b9983
:102968000a980cf0c9fe002876d12faf0023002268
:1029780019981a990ef010fb0e9b5d1e00281fd1a6
:10298800099b0e9a01333b602e9b7d60013b9b188f
:102998002e932d9b0837099301332d93072b07ddc1
:1029a8002caa0b990a980cf0a7fe002854d12faf37
:1029b80028ab3b601f9b1f9a7b602e9bfff7a1faf9
:1029c800002df5dd4c4b3b60102d0bdc2e9b7d6004
:1029d8005d192e952d9b099301332d93072bdfdc71
:1029e8000837e5e710237b602e9b083710332e93ba
:1029f8002d9b099301332d93072b07dd2caa0b99e7
:102a08000a980cf079fe002826d12faf103dd9e79f
:102a18007b602e9b099a01333a602e93dae7179b65
:102a2800189a9c1a002c00dc49e5344b3b60102caa
:102a38001ddc2e9b7c601c192d9b2e940993013361
:102a48002d93072b00dc3ae52caa0b990a980cf079
:102a580053fe002800d132e50c9b002b01d1fff773
:102a680045f819000a980bf07bfdfff73ff8102393
:102a78007b602e9b083710332e932d9b09930133cf
:102a88002d93072b07dd2caa0b990a980cf034fe1e
:102a98000028e1d12faf103cc7e70c990a980bf03a
:102aa8005ffd26e52e9b0693002b01d1fff71ef84c
:102ab8002caa0b990a980cf01ffefff717f8199a21
:102ac8001a9b19981a9910f00ff8002801d1fef7ef
:102ad800ebff0b4b1a000c3209920f9a472a01ddc3
:102ae800fef7d8ff0833fef7d4ff6b463c229b184d
:102af8001b780021fff743f9983e0100883e01004a
:102b0800542a01003400002a01d1fef768ff012b86
:102b180001d1fff74efb022b01d1fff7a1fb0726de
:102b280058ab5a1e0992069a591e324030320a7022
:102b380007994d070699c80807990543c9080791d9
:102b4800290007980695014301d0fff72ffbe107fd
:102b580004d5023b302a01d0fff7aafb099a58abeb
:102b68009b1a0d9d0d93002326000c93119313932c
:082b78001c00fff754f9c046f0
:020000040000fa
:102b8000d44500201c000000000000002444002068
:102b90009800000000000000f04500201c0000002c
:102ba000000000002046002010000000000000008f
:102bb0009046002008000000000000009846002019
:102bc000080000000000000064430020c000000076
:102bd0000000000020450020300000000000000040
:102be000504500203000000000000000604600203a
:102bf0000c00000000000000a046002008000000bb
:102c000000000000a84600200800000000000000ae
:102c1000b046002008000000000000000000002076
:102c2000e8020000000000009c26002000080000d0
:102c300000000000304600201000000000000000ee
:102c40009c2e0020000800000000000040460020ec
:102c50001000000000000000e80200200800000052
:102c6000000000006143002001000000000000009f
:102c70008d460020010000000000000048470020b1
:102c80000100000000000000494700200100000092
:102c9000000000004a470020010000000000000082
:102ca0004b47002001000000000000004c470020be
:102cb00001000000000000004d470020010000005e
:102cc000000000004e47002001000000000000004e
:102cd0007646002002000000000000009c36002024
:102ce0000400000000000000b846002004000000be
:102cf00000000000824600200200000000000000ea
:102d00004f47002001000000000000005047002055
:102d100001000000000000005147002001000000f9
:102d200000000000524700200100000000000000e9
:102d3000804500202c0000000000000053470020c8
:102d400001000000000000005447002001000000c6
:102d500000000000bc46002004000000000000004d
:102d60006243002002000000000000008e460020a8
:102d700002000000000000003047002002000000b8
:102d800000000000324700200200000000000000a8
:102d9000c04600200400000000000000c4460020df
:102da0000400000000000000554700200100000062
:102db0000000000056470020010000000000000055
:102dc0005747002001000000000000005847002085
:102dd0000100000000000000594700200100000031
:102de000000000005a470020010000000000000021
:102df0005b47002001000000000000005c4700204d
:102e00000100000000000000344700200200000024
:102e10000000000036470020020000000000000013
:102e2000f00200208d04000000000000c8460020d1
:102e30000400000000000000cc4600200400000058
:102e400000000000d0460020040000000000000048
:102e5000800700202a100000000000003c1d002018
:102e600060090000000000005d4700200100000034
:102e7000000000005e47002001000000000000008c
:102e80005f4700200100000000000000d446002041
:102e90000400000000000000604700200100000066
:102ea0000000000061470020010000000000000059
:102eb000624700200100000000000000bc44002028
:102ec00064000000000000006347002001000000d3
:102ed0000000000064470020010000000000000026
:102ee0006547002001000000000000003847002076
:102ef0000200000000000000664700200100000002
:102f000000000000674700200100000000000000f2
:102f1000684700200100000000000000d8460020a3
:102f20000400000000000000dc4600200400000057
:102f300000000000694700200100000000000000c0
:102f40008446002009000000000000006c460020bc
:102f50000a000000000000006a4700200100000095
:102f600000000000784600200a0000000000000079
:102f70006b47002001000000000000006c470020ab
:102f800001000000000000006d470020010000006b
:102f9000000000003a47002002000000000000008e
:102fa0003c47002002000000000000003e470020d7
:102fb0000200000000000000404700200200000066
:102fc0000000000042470020020000000000000056
:102fd000444700200200000000000000e0460020fe
:102fe0000400000000000000e4460020040000008f
:102ff00000000000e846002004000000000000007f
:103000006e47002001000000000000006f47002014
:1030100001000000000000007047002001000000d7
:1030200000000000714700200100000000000000c7
:1030300072470020010000000000000073470020dc
:1030400001000000000000007447002001000000a3
:103050000000000075470020010000000000000093
:10306000464700200200000000000000ec4600205f
:103070000400000001000000fffffffff0460020f9
:103080000400000001000000ffffffffaa1700205e
:103090000100000000000000764700200100000051
:1030a00000000000f44600200400000000000000c2
:1030b000f84600200400000000000000c03e002090
:1030c0003002000000000000ac1700200c040000db
:1030d0000000000077470020010000000000000011
:1030e0007847002001000000000000007947002020
:1030f00001000000000000007a47002001000000ed
:10310000000000000c460020140000000000000039
:10311000fc460020040000000000000000470020e2
:10312000040000000000000004470020040000002c
:103130000100000004000000b81b00204f00000048
:10314000000000005c4200200501000000000000bb
:103150005046002010000000000000007b470020c7
:1031600001000000000000007c470020010000007a
:10317000000000007d47002001000000000000006a
:103180007e47002001000000000000007f47002073
:103190000100000000000000804700200100000046
:1031a0000000000081470020010000000000000036
:1031b000824700200100000000000000834700203b
:1031c000010000000000000008470020040000008b
:1031d0000000000084470020010000000000000003
:1031e0000c470020040000000000000010470020f1
:1031f00004000000000000008547002001000000de
:103200000100000005000000201c00201501000046
:10321000000000001447002004000000010000002e
:10322000a0360020a0360020180400000100000095
:10323000000000008c390020f0390020543a0020b2
:10324000000000000000000000000000000000007e
:10325000000000000000000000000000000000006e
:10326000000000000000000000000000000000005e
:10327000000000000000000000000000000000004e
:10328000000000000000000000000000000000003e
:10329000000000000000000000000000000000002e
:1032a000000000000000000000000000000000001e
:1032b000000000000000000000000000000000000e
:1032c00000000000000000000000000000000000fe
:1032d00000000000000000000100000000000000ed
:1032e0000e33cdab34126de6ecde05000b000000b2
:1032f00000000000000000000000000000000000ce
:1033000000000000000000000000000000000000bd
:1033100000000000000000000000000000000000ad
:10332000000000000000000000000000000000009d
:103640000000000000000000f04000206c010000bd
:103650000100000043000000000000000000000026
:10366000000000000000000000000000000000005a
:103670000000000043000000000000000000000007
:10368000000000000000000000000000000000003a
:1036900000000000430000000000000000000000e7
:1036a000000000000000000000000000000000001a
:1036b00000000000430000000000000000000000c7
:1036c00000000000000000000000000000000000fa
:1036d00000000000430000000000000000000000a7
:1036e00000000000000000000000000000000000da
:1036f0000000000043000000000000000000000087
:1037000000000000000000000000000000000000b9
:103710000000000043000000000000000000000066
:103720000000000000000000000000000000000099
:1037300000000000413b01001137010000000000c3
:10374000b0f30000754001007440010074400100b6
:103750007440010074400100744001007440010095
:10376000744001007440010074400100ffffffff3e
:10377000ffffffffffffffffffff000001004153be
:103780004349490000000000000000000000000064
:103790000000000000000000000000000000415395
:1037a0004349490000000000000000000000000044
:1037b0000000000000000000000000000000000009
:1037c000ac45002028000000000000001847002041
:1037d00004000000000000001c470020040000005e
:1037e000000000002047002004000000000000004e
:1037f000b83a0020080400000100000000000000aa
:1038000000000000b83a0020b83a0020c03a00207a
:10381000c03a0020c83a0020c83a0020d03a002020
:10382000d03a0020d83a0020d83a0020e03a0020d0
:10383000e03a0020e83a0020e83a0020f03a002080
:10384000f03a0020f83a0020f83a0020003b00202f
:10385000003b0020083b0020083b0020103b0020dc
:10386000103b0020183b0020183b0020203b00208c
:10387000203b0020283b0020283b0020303b00203c
:10388000303b0020383b0020383b0020403b0020ec
:10389000403b0020483b0020483b0020503b00209c
:1038a000503b0020583b0020583b0020603b00204c
:1038b000603b0020683b0020683b0020703b0020fc
:1038c000703b0020783b0020783b0020803b0020ac
:1038d000803b0020883b0020883b0020903b00205c
:1038e000903b0020983b0020983b0020a03b00200c
:1038f000a03b0020a83b0020a83b0020b03b0020bc
:10390000b03b0020b83b0020b83b0020c03b00206b
:10391000c03b0020c83b0020c83b0020d03b00201b
:10392000d03b0020d83b0020d83b0020e03b0020cb
:10393000e03b0020e83b0020e83b0020f03b00207b
:10394000f03b0020f83b0020f83b0020003c00202a
:10395000003c0020083c0020083c0020103c0020d7
:10396000103c0020183c0020183c0020203c002087
:10397000203c0020283c0020283c0020303c002037
:10398000303c0020383c0020383c0020403c0020e7
:10399000403c0020483c0020483c0020503c002097
:1039a000503c0020583c0020583c0020603c002047
:1039b000603c0020683c0020683c0020703c0020f7
:1039c000703c0020783c0020783c0020803c0020a7
:1039d000803c0020883c0020883c0020903c002057
:1039e000903c0020983c0020983c0020a03c002007
:1039f000a03c0020a83c0020a83c0020b03c0020b7
:103a0000b03c0020b83c0020b83c0020c03c002066
:103a1000c03c0020c83c0020c83c0020d03c002016
:103a2000d03c0020d83c0020d83c0020e03c0020c6
:103a3000e03c0020e83c0020e83c0020f03c002076
:103a4000f03c0020f83c0020f83c0020003d002025
:103a5000003d0020083d0020083d0020103d0020d2
:103a6000103d0020183d0020183d0020203d002082
:103a7000203d0020283d0020283d0020303d002032
:103a8000303d0020383d0020383d0020403d0020e2
:103a9000403d0020483d0020483d0020503d002092
:103aa000503d0020583d0020583d0020603d002042
:103ab000603d0020683d0020683d0020703d0020f2
:103ac000703d0020783d0020783d0020803d0020a2
:103ad000803d0020883d0020883d0020903d002052
:103ae000903d0020983d0020983d0020a03d002002
:103af000a03d0020a83d0020a83d0020b03d0020b2
:103b0000b03d0020b83d0020b83d0020c03d002061
:103b1000c03d0020c83d0020c83d0020d03d002011
:103b2000d03d0020d83d0020d83d0020e03d0020c1
:103b3000e03d0020e83d0020e83d0020f03d002071
:103b4000f03d0020f83d0020f83d0020003e002020
:103b5000003e0020083e0020083e0020103e0020cd
:103b6000103e0020183e0020183e0020203e00207d
:103b7000203e0020283e0020283e0020303e00202d
:103b8000303e0020383e0020383e0020403e0020dd
:103b9000403e0020483e0020483e0020503e00208d
:103ba000503e0020583e0020583e0020603e00203d
:103bb000603e0020683e0020683e0020703e0020ed
:103bc000703e0020783e0020783e0020803e00209d
:103bd000803e0020883e0020883e0020903e00204d
:103be000903e0020983e0020983e0020a03e0020fd
:103bf000a03e0020a83e0020a83e0020b03e0020ad
:103c0000b03e002024470020040000000100000016
:103c1000ffffffff28470020040000000100000014
:103c200000000200381d0020040000000000000019
:103c30002c470020040000000000000000000000ed
:103c400000000000222222222222222222222222dc
:020000040000fa
:103c5000f0b5d64600b5d04ca544fd24e4002200c2
:103c600000218420000102ab9c46604410f0fcf867
:103c70002200002118a810f0f7f81422002113a840
:103c800010f0f2f8142200210ea810f0edf8142222
:103c9000002109a810f0e8f8c04b1c78002c62d075
:103ca000bf4b1b78012b01d100f032fcbd4b1b78c0
:103cb000012b01d100f045fcbb480ff09df8bb483b
:103cc0000ff0b2f8ba4c20000ff04ef82368002b2a
:103cd00001d000f04ffcb44b1968b44b1b68c91af3
:103ce000b44814300ff004feb14b1b68002b01d018
:103cf00000f057fcad4b1a68ab4b1b689a4201d3de
:103d000000f04afc002b01d100f046fcaa490a60f1
:103d1000991aaa480160052901d800f039fc06214a
:103d200001600632a64b1a60fd22d20000218423d6
:103d30001b0102a884466344180010f095f8a04bbc
:103d400019689d4b186884231b0102aa944663449a
:103d50001a0008f0b1fe002801d000f05cfc14222b
:103d6000984b1a7025e00023974a1370974a1380e6
:103d7000944b00221a7096499648143006f0cafff8
:103d8000904a1378002bfcd08e4b1b78012b00d16e
:103d900080e08224e4052025a5611e200ef07efc33
:103da00065618b480ef07afc08f0faf90922854b20
:103db0001a70844b1b78152b01d100f04bfe814b00
:103dc0001b78142b01d100f06dfe7e4b1b78092b64
:103dd00001d100f094fe804a138801331380704ba8
:103de0001b78012b01d100f0adfe6e4b1b78012b2f
:103df00001d100f0d7fe0022724b1a70fd22d200d2
:103e0000002118a810f030f8744b1a787449643106
:103e100018a80ef09bfb734918a806f07bff694aaf
:103e20001378002bfcd0674b1b780b2b02d0092298
:103e3000644b1a700022654b1a80614b1b686a4afa
:103e4000934201d900f0defe684a136067480ff024
:103e500099fa5b4b1a68554b1968654860300ff04a
:103e600047fd01224d4b1a70574b1b780133dbb2d3
:103e7000132b01d800f0d6fe0023534a1370474a93
:103e80001370fa20c0000ef009fc5a4b9d4404bc8c
:103e90009246f0bd00224b4b1a70fa218900564819
:103ea0002c3006f037ff474a1378002bfcd0454be7
:103eb0001b78012b03d00922424b1a7079e70022ac
:103ec000404b1a70fa2189004b485c3006f022ff03
:103ed0003c4a1378002bfcd03a4b1b78082b06d1b8
:103ee0000922384b1a700122444b1a7061e70023f3
:103ef000424a1370334a1370fa2189003548603002
:103f000006f008ff2f4a1378002bfcd02d4b1b78ae
:103f1000012b03d009222b4b1a704ae70022294bb0
:103f20001a70fa2189003448643006f0f3fe254afd
:103f30001378002bfcd0234b1b78012b03d00922d4
:103f4000204b1a7035e700221e4b1a702c492a4864
:103f5000783006f0dffe1b4b1a78002afcd0194b94
:103f60001b78012b03d00922164b1a7021e700227f
:103f7000144b1a7023490f48043005f033ff114bde
:103f80001a78002afcd00f4b1b78012b3cd0092259
:103f90000c4b1a700de7c046d0efffff6b470020b7
:103fa000504700205147002040010020b802002067
:103fb00048010020d8a60000e4460020e846002082
:103fc000e0460020aa1700206c4700203a47002056
:103fd00010270000d8a50000464700206e470020ab
:103fe000d8a70000f049020081ae00009c0200202a
:103ff00058a800003010000058a6000058470020c4
:10400000a8610000204e0000d54b1b78012b19d170
:10401000fd22d200002184231b0102a884466344b0
:1040200018000ff021ff84231b0102aa9446634469
:10403000180008f04fff002800d0b8e01522c94b47
:104040001a70b6e6c84b1b78012b19d1fd22d2009d
:10405000002184231b0102a88446634418000ff04a
:1040600003ff84231b0102aa94466344180009f04d
:104070002df8002800d09ae01522ba4b1a7098e665
:10408000ba480ef0b9feba480ef0cefeb94d28007f
:104090000ef06afe2b68002b3dd1b44b1968b44b6f
:1040a0001b68c91ab44814300ff022fcb14b1b68ce
:1040b000002b44d1ae4b1b68ac4a126893423ad2f3
:1040c000002a38d0ad490b60d11aad4801600529ee
:1040d0002ed9062101605b18aa4a1360fd22d20086
:1040e000002184231b0102a88446634418000ff0ba
:1040f000bbfe84231b0102aa944663441a00a14b11
:1041000019689e4b186808f0d7fc00284fd114227c
:10411000944b1a704de6954b19689b4b9c46614435
:10412000934b1b68c91a944814300ff0e1fbbde7ac
:10413000944b1a60d2e714228a4b1a7039e68c4be2
:104140001b68924a93422ed88c4a13608e4ad21a28
:104150008b490a60052a22d90621894a11605b1819
:10416000884a1360fd22d200002184231b0102a88b
:104170008446634418000ff077fe84231b0102aad3
:10418000944663441a007f4b19687c4b186808f00a
:1041900093fc00280bd11422724b1a7009e67a4a5c
:1041a000784b1a60dee714226e4b1a7001e6784bea
:1041b0001b78012b07d170483c300ff099fb092286
:1041c000684b1a70f5e50022664b1a70fa218900d7
:1041d00069485c3006f09efd624b1a78002afcd0dc
:1041e000604b1b78012b03d009225e4b1a70e0e56f
:1041f000fd22d200002118a80ff036fe18a80ef0fc
:1042000083fd002318ad13a89ab2595dff2905d08c
:10421000013292b219540133142bf5d1002a09d17d
:1042200013aa554b643323cb23c211001a880a808a
:104230009b788b704b4b002119701970fd22d200b6
:1042400018a80ff011fe13aa4b49743118a80ef0ec
:104250007df9fa21890018a806f05cfd414b1a7817
:10426000002afcd03f4b1b78012b03d009223d4b89
:104270001a709ee500223b4b1a70fa2189004548ce
:10428000203006f047fd374b1a78002afcd0354b1a
:104290001b78012b03d00922324b1a7089e50022ca
:1042a000304b1a703c493d481c3006f033fd2d4b15
:1042b0001a78002afcd02b4b1b78082b03d109223b
:1042c000284b1a7075e50022264b1a703249334884
:1042d000243006f01ffd234b1a78002afcd0214b16
:1042e0001b78082b03d109221e4b1a7061e52c485c
:1042f0000ef0d4f900221b4b1a702749274834309e
:1043000006f008fd174b1a78002afcd0154b1b78d5
:10431000082b03d10922134b1a704ae50125214bc2
:104320001d7000210f4b1970fd22d20018a80ff04c
:104330009bfd2a001949443118a80ef007f91a49c3
:1043400018a806f0e7fc074b1a78002afcd0054baa
:104350001b78012b2ad00922024b1a7029e5c0468e
:1043600050470020aa17002051470020400100209c
:10437000b802002048010020d8a60000e446002032
:10438000e8460020e046002082ae000081ae00003a
:104390005547002058a60000f049020058a7000029
:1043a000881300006e470020701700000021cc4bde
:1043b0001970fd22d20018a80ff056fdc94b1a78cb
:1043c000c949583118a80ef0c1f8c84918a806f014
:1043d000a1fcc34b1a78002afcd0c14b1b78012bdf
:1043e00002d00922be4b1a70fd22d200002118a86b
:1043f0000ff03afd18a80ef06ffc0022130009af71
:1044000001260ead02a958200918095dff2916d012
:104410003a290bd10134e4b200235a1c02a95820d6
:104420000918095df95493b2320004e0002af4d16e
:10443000581ce95483b20134e4b2632ce2d9002b56
:1044400001d0002a0ed10eaaa7490b006c3331cb44
:1044500031c21b7813700b007c33ca6f09921a7932
:1044600009ab1a7100219e4b1970fd22d20018a8c9
:104470000ff0fafc9b4b1a780eab009309ab9c49ea
:10448000043118a80ef062f89a4918a806f042fc08
:10449000934b1a78002afcd0914b1b78012b03d048
:1044a00009228f4b1a7084e400228d4b1a709249b6
:1044b0008f48203006f02efc894b1a78002afcd059
:1044c000874b1b78082b03d10922854b1a7070e4a7
:1044d0000021834b1970fd22d20018a80ff0c4fcf4
:1044e000804b1a7882492c3118a80ef02ff8824997
:1044f00018a806f00ffc7a4b1a78002afcd0784beb
:104500001b780b2b00d13fe10922754b1a7050e448
:10451000fd22d200002184231b0102a884466344ab
:1045200018000ff0a1fc84231b0102aa94466344e7
:10453000180008f0cffc00286dd11522684b1a70c6
:1045400037e4fd22d200002184231b0102a8844607
:10455000634418000ff088fc84231b0102aa9446d0
:104560006344180008f0b2fd002854d115225c4bba
:104570001a701ee4614b1968614b9c466144614ba3
:104580001b68c91a604814300ff0b2f9fff7acfb92
:104590005e4a1360fff7c8fb1422514b1a70fff7f5
:1045a00008fc584b1b685a4a93422fd8594a13604b
:1045b000534ad21a58490a60052a23d90621564a75
:1045c00011600633514a1360fd22d200002184237a
:1045d0001b0102a88446634418000ff045fc4b4bb6
:1045e00019684c4b186884231b0102aa9446634443
:1045f0001a0008f061fa00280dd11422384b1a7005
:10460000fff7d7fb3e4a414b1a60dde71422344bdb
:104610001a70fff7cefbfd22d200002118a80ff080
:1046200023fc18a80ef058fb18ab1978ff2924d0ea
:1046300000230027002209ae18a80eac0ee00133bb
:10464000dbb200214a1c92b2c75c775401270133c8
:10465000dbb2632b0dd8c15cff290ad03a29eed01a
:10466000002f04d1511cc55ca5548ab2efe711009c
:10467000e8e7002a01d0002f0ed10eaa1a490b003c
:104680006c3331cb31c21b7813700b007c33ca6f93
:1046900009921a7909ab1a710022114b1a70fd2286
:1046a000d200002118a80ff0dffb0e4b1a780eabda
:1046b000009309ab0e49043118a80df047ff0d49ce
:1046c00018a806f027fb064a1378002bfcd0044bf1
:1046d0001b78012b22d00922014b1a70fff769fbce
:1046e000aa1700206e47002058a70000701700008e
:1046f000d8a70000e0220200f0490200400100209b
:1047000082ae0000b8020020d8a60000e0460020db
:1047100081ae0000e4460020e84600200022d34b92
:104720001a70d349d348203006f0f4facf4a1378f0
:10473000002bfcd0cd4b1b78082b20d00022cb4b7c
:104740001a70fd22d200002118a80ff08dfbca4b71
:104750001a78c8492c3118a80df0f8fec44918a8d9
:1047600006f0d8fac14a1378002bfcd0bf4b1b7857
:104770000b2b09d00922bd4b1a70fff71afb092237
:10478000ba4b1a70fff715fb0122bc4b1a700022be
:10479000b64b1a7084231b0102aa94466344180086
:1047a0000ff0a9fb85b20004000c1a2284231b0120
:1047b00002a98c4663441a54b14984231b01634403
:1047c000180008f06ff8002803d0a84a1378002bcf
:1047d000fcd0a64b1b78012b00d1d1e0a64b1c7856
:1047e000012c1fd0022c41d0032c6ed19f4b1b7883
:1047f000102b40d00023a14a13701b2202a98c4623
:104800006244137008aa138016226244138007aa18
:1048100013801222624413809a4b1c882c19a4b274
:104820001c801ae0914b1b780e2b24d00023934a56
:1048300013701b2202a98c466244137008aa1380cd
:1048400016226244138007aa138012226244138046
:104850008d4b1c882c19a4b21c801527834b9a46bb
:104860000025854e834b40330593b7e07f4b1b7883
:104870000f2b00d0dae100227c4b1a70fd22d2000f
:10488000002118a80ff0f0fa22008049583118a82a
:104890000df05cfe7e4918a806f03cfa734a1378c6
:1048a000002bfcd0714b1b78012b02d009226f4bdf
:1048b0001a706e4c002323706d496e48383006f034
:1048c00029fa09232370fff774fa042c1bd1674bd4
:1048d0001b78112bcfd00023684a13701b2202a92a
:1048e0008c466244137008aa138016226244138017
:1048f00007aa1380122262441380664b1c882c196d
:10490000a4b21c80a9e7052c1bd1584b1b78122b95
:10491000b1d00023594a13701b2202a98c4662446d
:10492000137008aa138016226244138007aa13800a
:10493000122262441380584b1c882c19a4b21c808c
:104940008be7062c00d089e1484b1b78132b92d0c3
:1049500000234a4a13701b2202a98c46624413703a
:1049600008aa138016226244138007aa1380122219
:1049700062441380494b1c882c19a4b21c806ce73c
:1049800000233e4a13701b2202a98c466244137016
:1049900008aa138016226244138007aa13801222e9
:1049a00062441380344b1b78012b00d150e7022b5b
:1049b00000d14de1032b00d12ee7042b9dd0052b18
:1049c000b9d00024062b00d047e7d3e7274b1b784c
:1049d0000d2b35d0013fffb2002f36d053461d704e
:1049e000fd22d200002118a80ff03efa3278059976
:1049f00018a80df0abfd122302aa9446634402935b
:104a000007ab019316236344009308ab1b22624457
:104a1000174918a805f0b0ff002803d0134a1378ef
:104a2000002bfcd008ab1b88a342cfd3122302aad1
:104a3000944663441b88002b01d1fff7baf9c5e700
:104a400009220a4b1a70fff7b4f90922074b1a70b2
:104a5000fff7aff90024054b1c7006484c300ff0ef
:104a60003df90f4b1c70fff70cfac046aa17002047
:104a7000f0490200d8a700006e47002075470020cb
:104a8000102700003e4700203a47002058a70000aa
:104a90007017000040470020424700204447002094
:104aa0006b470020774b1b78012b08d0764870307d
:104ab0000ff014f90022734b1a70fff7e2f900228d
:104ac000724b1a70fd22d200002118a80ff0ccf909
:104ad0006f4b1a786c49643118a80df037fd6d4999
:104ae00018a806f017f9694a1378002bfcd0674b19
:104af0001b780b2bdad00922644b1a70d6e7664b71
:104b00001b78012b0cd0654b1b78012b11d064480e
:104b100020300ff0e3f800225a4b1a70fff7b1f97a
:104b2000604809f06df800235b4a13705e4a137009
:104b3000ede75c4809f03af90023584a13705b4ae4
:104b40001370e4e70022514b1a70fd22d2000021bd
:104b500018a80ff089f94e4b1a784b49643118a800
:104b60000df0f4fc4b4918a806f0d4f8474a137826
:104b7000002bfcd0454b1b780b2b02d00922434b5a
:104b80001a7047483c300ff0a9f80023424a1370ce
:104b9000454a1370464a1380464803600ef035fbc1
:104ba000fff75ff90022394b1a70fd22d200002175
:104bb00018a80ff059f9364b1a783349643118a800
:104bc0000df0c4fc334918a806f0a4f82f4a137856
:104bd000002bfcd02d4b1b780b2b02d009222b4b2a
:104be0001a702f483c300ff079f800232b4a1370cd
:104bf0002e4a13702e4a13802f4803600ef01afbc2
:104c0000fff72ff900252d4b1d602d4c20000ef0d5
:104c1000f3f82c4805600ef061fb20000ef09dfbc0
:104c2000fff714f9284a1370fff72bf90023274ade
:104c300013701b2202a98c466244137008aa1380c9
:104c400016226244138007aa138012226244138042
:104c50001f4b1c882c19a4b21c80fee500241b4ba2
:104c60001c701b2302aa944663441c7008ab1c8072
:104c7000162363441c8007ab1c80122363441c80f2
:104c8000ebe5c0466b470020d8a70000aa1700201c
:104c90006e470020f0490200504700205147002095
:104ca00058a80000580000205a4700205b47002009
:104cb0003a47002074010020500000209c02002090
:104cc00040010020480100206c470020754700206b
:044cd0003c4700203d
:020000040000fa
:104cd400f0b5a5b00793002304900798209306919c
:104ce4001a920ef0ddfb050000680ff002f90026b1
:104cf4000027069b05901f931f9b1a780d2a39d80d
:104d0400092a3dd2002a44d00023129300221f9c7a
:104d14000c922378302b00d07ee06378582b02d09d
:104d2400782b00d06ee0079bb74a0293129b1fa911
:104d3400019320ab0093049821ab04f017fc0725e2
:104d44000590054005d0062d2fd1002301341f9472
:104d540012931a9b002b02d01a9b1f9a1a60129b63
:104d6400002b1dd0802332001b06fb1810001900f5
:104d740025b0f0bd2b2a05d02d2a14d0202ac3d16a
:104d84000133b8e7002212925a1c1f925b78002b61
:104d9400bcd1069b1f93002312931a9b002bdbd1db
:104da40032003b00e2e70122ede7209a002a07d017
:104db400352122a80ef0d0f9209904980ef0c8ffee
:104dc400681e042806d80ef073ff0c0317190c0094
:104dd400229e239f059b1b07bbd580231b061f43d5
:104de400b7e7239b894a8a491a40219b229e5b1874
:104df4001b051a431700ede7864febe70126864fa4
:104e04007642e7e71f9b5a1c1f925b78302bf9d040
:104e1400002b9ed001230c931f9b0a221393002383
:104e24000b930a9308931f9804782300303bd9b25c
:104e3400092926d9059a29680ef007fd002832d0e1
:104e4400002023008446089a079005922022190026
:104e540091430a000021452a00d0a7e0059b0c9a43
:104e6400034313438b4294d01f9b069301331f9338
:104e7400069b5b782b2b71d00c002d2b74d1012455
:104e84006de00899082909dc0a9951435b180a93d3
:104e9400089b0130013308931f90c4e70b995143d9
:104ea4005b180b93f4e71f9a059b9446089a634496
:104eb4001f931b78002a49d11000302b28d01a00e8
:104ec400313a082a46d8844600201f9a0590139246
:104ed400303b421c002b0fd00a219444059a101831
:104ee40082421bd1511c0591082a25dc0a220a9909
:104ef4004a439b1800220a9310001f9b591c1f91c0
:104f04005b781a00303a092ae2d9012207929de718
:104f14001f9b01305a1c1f925b78cee70132541e4e
:104f2400082c03dc0a9c4c430a94d9e7102ad7dcea
:104f34000b9c4c430b94d3e7059900221029dbdc2e
:104f44000a210b9841435b180b93d5e7089a8446d2
:104f54000592d6e7002294460592d6e70c00069bfc
:104f640002331f93069b9b781a00303a092a60d8b3
:104f7400302b43d01a00313a0021082a16d8303b8e
:104f84001f9d0e931f9b591c1f915b781a00303a8a
:104f9400092a47d94a1b214d2900082a03dc0e9906
:104fa400a94200dd2900002c00d04942059a002abc
:104fb40063d10c9a104300d0cbe6079a002a00d0a4
:104fc400e7e64e2b3ed038dc492b00d0e1e6144c0a
:104fd4001fa821000ef0a2fa002800d1d9e61f9bd9
:104fe400e11c013b1fa81f930ef098fa002802d180
:104ff4001f9b01331f93074f0026aae61f9b5a1cd1
:105004001f925b78b4e7c046043d0100ffffefff49
:10501400330400000000f07fffffff7f1f4e0000fd
:105024003c4001000a220e994a43d218303a0e92ab
:10503400a8e7069a00211f92b8e7692bc7d06e2b08
:1050440000d0a6e68b491fa809310ef067fa0028a4
:1050540000d19ee61f9b1b78282b0cd122aa8649df
:105064001fa809f0bbfd052805d1239b834a229e76
:105074001a4317006de6824fbee76346cb1a0793c7
:10508400089b002b01d1059b0893059c102c00dd87
:1050940010240a980cf052fc06000f00092c15ddb0
:1050a4002200784b093ad2009b181a685b6804f016
:1050b40085fc06000b980f000cf040fc02000b006e
:1050c4003000390002f082fb06000f00059b0f2b15
:1050d40039dc079b002b00d13be626dd162b0bdccd
:1050e4006849db00c9183200086849683b0004f0cd
:1050f40065fc06000f002ce62523059a9b1a079ae7
:105104009a4220dc0f24059b5e4de41ae1006918e5
:105114003200086849683b0004f050fc079b1c1be4
:10512400e4002c1922686368e1e7079b16330adb65
:10513400079b3000da00534b39009b1a1a685b68ee
:1051440002f014fed5e7059b1c1b079be418002cfa
:105154006edd0f2323400ad04a49db00c918320010
:10516400086849683b0004f029fc06000f000f237f
:105174009c4348d02633ff339c4221dd0024059410
:105184000a94079422230026049a3c4f13600a9b36
:10519400b34200d1dde5209904980ef0d9fd0799ba
:1051a40004980ef0d5fd059904980ef0d1fd0a99e6
:1051b40004980ef0cdfd210004980ef0c9fdc8e559
:1051c4000023300039001d002411012c1edc002bab
:1051d40001d006000f002c4bed00ff182b4b3200c2
:1051e4005d19286869683b0004f0e8fb234b0f0055
:1051f4000b40274906008b42c0d826498b4213d95d
:105204000126254f76420023069373e001221442bf
:1052140007d01e4aeb009b181a685b6804f0cefbab
:10522400012301356410d0e7d4239b04ff18eae777
:10523400002ce8d00f23644223400ad0114adb003b
:10524400d31830001a685b68390002f08ffd06003d
:105254000f002411d7d01f2c20dd002405940a94bc
:1052640007942223049a002613600a9b0027002b2c
:1052740091d16ee53c400100183d01000000f07f33
:105284000000f8ff28fd00000000b0fc48350100d4
:105294000000a07c0000907cffffef7f10232340e0
:1052a400069301d06a230693300039000023ca4dc7
:1052b400002c00dd03e1002b01d006000f00069b4b
:1052c400002b0fd06b237900490d3a005b1a002b99
:1052d40008dd1f2b00dc04e10026342b00dcf9e0a0
:1052e400dc27bf0400220023300039000bf056fef7
:1052f4000028b2d10a9b089a00931399059b04983d
:105304000bf042fd0a90002800d137e7079b0024e8
:10531400da175b421a40079b1592db43079adb17a7
:105324001a40139205940a9b049859680cf0eafdfc
:105334000790002800d125e70a9b0a991b690c31c4
:105344009a1c92000c3008930ef039fd22ab0193a5
:1053540021ab009332003b0004980e960f970af09d
:10536400a9fe2090002800d10ce7012104980ef03a
:1053740038fd0590002800d104e7219b002b00daba
:10538400b4e0159ad518139a94460699229a5b1a92
:1053940036219b189148013b8a1a0121834200db84
:1053a400b0e0c01a121a1f2800dda4e081400023d7
:1053b40014910c93ab1808931300069a6344d31802
:1053c400089a0b932b00954200dd13000b9a93422d
:1053d40000dd1300002b06dd089aed1ad21a08929c
:1053e4000b9ad21a0b92159b002b17d01a00059911
:1053f40004980bf089fc0590002800d1c2e6010056
:10540400209a049809f0aefd1b90002800d1b9e65b
:10541400209904980ef09cfc1b9b2093089b002b66
:1054240073dc139b002b79d10b9b002b08dd1a0036
:10543400079904980af036ff0790002800d1a1e6e6
:10544400002d08dd2a00059904980af02bff059029
:10545400002800d196e6079a209904980af0fcfbec
:10546400041e00d18ee60025c3680599c5600b9320
:105474000df06ffba8425bda0b9bab421bd1ae4233
:1054840019d13b03ab4216d1d622554bd2043b4033
:10549400934210d96369ab4202d12369012b0add1f
:1054a4002100012204980af0fdfe059904000df084
:1054b40050fb00286cdc069b002b78d16be60122a4
:1054c400144204d02a686b6804f078fa012364104b
:1054d4000835ede60121203b494299400a40170076
:1054e40000e7012252429a401640fbe6139a159daa
:1054f400d21a944649e73b48c31a080098400c90d6
:10550400149157e700230c93fae7089a209904981a
:105514000af0c8fe2090002883d133e6139a079935
:1055240004980bf0f1fb0790002800d07ce729e6f3
:10553400002800d095e00b9a3b03002a24d02a4986
:105544003a001b0b8b425ed1069b0138b446010026
:10555400002b0ad0d425224bed043b40ab4204d8a7
:105564006b211b0dcb1a0100994061454bd11f4b98
:105574009a4202d14b1c00d104e6194b00261a4072
:1055840080235b03d71896e7002b3cd1002e3ad139
:10559400069a134b002a2dd01a00d6213a40c9048a
:1055a4008a4227dcdc239b049a4200dc59e6104b38
:1055b40030001193002310933900109a119b04f0ca
:1055c400fdf906000f1e00d0e5e5002800d0e2e555
:1055d4002223049a1360dee5a834010002fcffffd5
:1055e4000000f07fe2fbffffffff0f00ffffef7ff4
:1055f400000050390126a94a3b409b18a84a76422c
:105604001a43170057e70c9b002b13d03b4200d1e1
:1056140051e70b9b069a30003900002b0fd00df098
:1056240049fc02000b000e980f9902f0cff8060017
:105634000f0040e7149b334200d13ce7e9e70df04b
:1056440039fc02000b000e980f9901f017fb0022a1
:10565400002306000f000bf0a1fc002800d000e698
:1056640029e7059920000cf075fc80230022db0556
:10567400089009910bf0a2fc002875d00b9b002b1d
:1056840043d00022874b0c920d93864b0893864b94
:105694003b401493149a854b9a4200d0b1e00e9a81
:1056a4000f9b10921193824b3000ff1839000cf0bd
:1056b40011fd02000b000c980d9904f07ff93200e3
:1056c4003b0002f083f8784a7a4b06000a409a427b
:1056d40062d9794b119a9a4203d1109a013200d1be
:1056e40050e501261f007642209904980ef030fb05
:1056f400079904980ef02cfb059904980ef028fbea
:10570400210004980ef024fb0de6002e1dd13b036e
:1057140020d1089809990022624b0bf045fc00281f
:105724001ed1089809990022644b04f047f905003a
:105734000891802212069446089b1c9563441d938d
:105744001c9a1d9b0c920d93a1e7012e02d1002ff0
:1057540000d186e500225a4b00250c920d9394e764
:10576400564b0b9d0893e4e7544b08980999002283
:1057740004f024f90b9b05000891002b07d180232a
:105784001b06cb1816901793169a179bdae702009c
:10579400089b16921793f7e7d4239b04cf18069b14
:1057a400002ba1d1404b149a0c973b409a429bd1b9
:1057b400089928000bf0f8ff0bf072fe0b000200b2
:1057c4000899280001f05afa0b9b08900991002bc4
:1057d40004d1002e02d10c9b1b0358d008980999c0
:1057e400384a394b0bf0e0fb002800d0d3e408988a
:1057f4000999364a314b0bf0ebfb002800d173e7d3
:10580400c9e4069b002b2ad0d423149adb049a42c1
:1058140025d82f4a2f4b280008990bf0cffb0028de
:1058240016d0280008990df0a7f8002800d101200f
:105834000cf084f80b9b05000891002b22d18023e7
:105844001b06cb1818901993189a199b0c920d9358
:10585400d6220d9bd2049b18149a9b1a0d930e9872
:105864000f990c9e0d9f0cf035fc02000b003000cc
:10587400390004f0a3f80e9a0f9b01f0a7ff06006d
:105884000f008ce70200089b18921993dce70d4a7d
:10589400114b089809990bf087fbaee70000f0ff65
:1058a400ffff0f000000f03f0000f07f0000e07fea
:1058b4000000b0fcffff9f7cffffef7f0000e03f94
:1058c4000000f0bf9535a094ffffdf3f35e5af350d
:0c58d4000000c0ffffffdf41ffffcf3fdf
:020000040000fa
:1058e000f0b514001d00016c9db00390259e069438
:1058f0000795002909d00123426c93404a608b60d0
:105900000ef028fa0023039a1364079b002b1cda7d
:10591000012333606b005b080793079cba4b22009e
:1059200019931a409a421ad1b84b249a1360069ad6
:10593000b74b002a03d1240301d100f0a2fd269a1f
:10594000002a05d10933180007e000233360e4e79b
:1059500018000c330930269a13601db0f0bd069e66
:10596000079f00220023300039000bf019fb051eb1
:105970000dd00123249a1360a54b269a18000d30f0
:10598000002aead01a0026990e320a60e5e71aab1f
:1059900001931bab009332003b0003980af08cfb91
:1059a000630005905b0d00d17fe03a03994c120b28
:1059b00014432100984a300018959e180022974bf6
:1059c00001f05ef9964a974b03f0faff964a974b1f
:1059d00001f0fefe040030000d000bf063fd944a60
:1059e000944b03f0edff02000b002000290001f0b2
:1059f000effe04000d000bf0d9fe002204900023fe
:105a0000200029000bf0d2fa00280ed004980bf0e9
:105a100049fd0b000200290020000bf0c1fa030031
:105a200058425841049b1b1a049301231493049b6e
:105a3000162b0fd88049db00c91808684968069af8
:105a4000079b0bf0c7fa00284bd0049b013b049343
:105a5000002314931a9b9e1b00230a933300013bdf
:105a60000c9304d501239b1b0a9300230c93049be6
:105a7000002b38db049a0c9b944663440c93002360
:105a800011920e93229b0124092b00d990e0052b43
:105a900002dd0024043b2293229b981e032800d998
:105aa00090e00ef007f9818329741a9b1b9a9e18c7
:105ab000624bf218202a0fdd203b0698f318d840dd
:105ac00040239b1a9c4020430bf03aff01235c4c7f
:105ad000013e0919189371e7202306989b1a9840f4
:105ae000f2e71490b6e70a9b049a9b1a0a93534272
:105af0000e9300231193c5e701231093239b002be2
:105b000064dd0d930893002203994a640422110076
:105b1000143199425fd9039b596c18000cf0f4f9c9
:105b2000039b09901864089b0e2b00d904e1002cfc
:105b300000d101e1069b079c16931794049b002b50
:105b400000dc81e01a000f213b4b0a40d2009b1879
:105b50001e685f68049b02241d11eb060ad5394bb1
:105b60000d401a6a5b6a1698179902f001f903242e
:105b700006900791334b0f93002d34d132000698d5
:105b800007993b0002f0f4f80690079178e00123b2
:105b9000239a10939446049b63440d930133089316
:105ba000002bb0dc0123aee70023a6e70023efe7dc
:105bb000002310942293013b0d930893002212239b
:105bc0002392a0e701231093023bf5e701230d93f5
:105bd00008931a00f4e703990398496c520009915d
:105be0000131416493e701231d4209d0e4180f9b62
:105bf00030001a685b68390003f0e2fe06000f000f
:105c00000f9b6d100833b6e70000f07f0f270000f0
:105c1000d83e01000000f03f01fcffff0000f83f0c
:105c200061436f63a787d23fb3c8608b288ac63fa2
:105c3000fb799f501344d33f28fd0000320400003d
:105c4000000010fe48350100049b0224002b17d0f1
:105c5000169817995d420f23ce4a2b40db00d318cc
:105c60001a685b6803f0acfe0127002306900791d9
:105c7000c94e2d11002d00d08fe0002b00d083e7fe
:105c8000149b002b00d193e0069e079f0022c34b7c
:105c9000300039000bf08af9002800d188e0089b19
:105ca000002b00d184e00d9b002b41dd049b0022e2
:105cb000013b0f933000ba4b390003f081fe069090
:105cc00007910d9d01342000069e079f0bf0eafb13
:105cd00032003b0003f074fe0022b24b01f078fd6d
:105ce00012901391129b139caf4a06930794139b37
:105cf0009c180794002d5fd10022ac4b3000390076
:105d000000f0beff069a230006000f000bf062f9b8
:105d1000002800d00ae3a6481399844661440b008a
:105d2000069a300039000bf041f9002800d0f5e266
:105d3000169b179c069307941b9b002b00da61e1ce
:105d4000049a0e2a00dd5de1924bd2009b185c683c
:105d50001b680a930b94239b002b00dbcde0089b70
:105d6000002b00ddc9e000d0d8e20a980b99002290
:105d70008e4b03f025fe069a079b0bf035f9089f22
:105d80003e00002800d0aee2099b099a5d1c312339
:105d90001370049b01330493a9e23d4205d032689d
:105da000736803f00dfe012301346d10083661e7be
